:060000000A128A110C280F
:10000800FE00030EF1000A08F2000A128A11EE2F10
:100018000A128A110F280A128A15BC270A128A1195
:10002800D0000A128A15BD270A128A11D1000A12B5
:100038008A15BE270A128A11D2000A128A15BF270A
:100048000A128A11D30083132030840038300A1230
:100058008A15C0270A128A11F801F901FA018301E9
:100068000A128A1137280A128A11D5230A128A110C
:1000780001300A128A11D4270A128A11D2300A12C0
:100088008A15DB270A128A113B300A128A15DB27E8
:100098000A128A1100300A128A11D4270A128A1108
:1000A800D3300A128A15DB270A128A1100300A1285
:1000B8008A116C270A128A1183120313CD004D0886
:1000C800B70000300A128A116C270A128A118312AB
:1000D8000313CD004D08B60000300A128A116C27B0
:1000E8000A128A1183120313CD004D08B50000309F
:1000F8000A128A116C270A128A1183120313CD007F
:100108004D08B40000300A128A116C270A128A11AD
:1001180083120313CD004D08B30000300A128A1170
:100128006C270A128A1183120313CD004D08B200FE
:1001380000300A128A116C270A128A1183120313DB
:10014800CD004D08B10000300A128A116C270A123E
:100158008A1183120313CD004D08B00000300A1233
:100168008A116C270A128A1183120313CD004D08D5
:10017800F80000300A128A116C270A128A118312B9
:100188000313CD004D08AF0000300A128A116C2706
:100198000A128A1183120313CD004D08AE000030F5
:1001A8000A128A116C270A128A1183120313CD00CE
:1001B8004D08AD0000300A128A116C270A128A1104
:1001C80083120313CD004D08AC0001300A128A11C6
:1001D8006C270A128A1183120313CD004D08AB0055
:1001E8000A128A15C8270A128A1101300A128A11BE
:1001F800D4270A128A1150300A128A15DB270A12EC
:100208008A1103300A128A15DB270A128A110A1288
:100218008A15C8270A128A1178080A128A15D1275E
:100228000A128A11343083120313CE00F130CD0044
:10023800CD0B1C29CE0B1C29780883120313CD0083
:10024800CE014D08BC004E08BD007A30CF004F08E3
:10025800BE000A128A11E1250A128A117A080A12C6
:100268008A11B4260A128A1183120313CD004D088D
:10027800AA007B080A128A11B4260A128A1183126C
:100288000313CD004D08A9007C080A128A11B42670
:100298000A128A1183120313CD004D08A800F50134
:1002A80001300A128A112E260A128A1101300A1206
:1002B8008A1194270A128A11F50102300A128A114A
:1002C8002E260A128A118312031328080A128A1585
:1002D800E6270A128A118312031329080A128A15BB
:1002E800E6270A128A11831203132A080A128A15AA
:1002F800E6270A128A11831203132E08CD00CE01B5
:100308004D08BC004E08BD007930CF004F08BE0034
:100318000A128A11E1250A128A1179080A128A1129
:10032800B4260A128A1183120313CD004D08A700C0
:100338007A080A128A11B4260A128A118312031340
:10034800CD004D08A6007B080A128A11B4260A12AD
:100358008A1183120313CD004D08A5000630CD0085
:100368004D08F50002300A128A112E260A128A1147
:100378008312031325080A128A15E6270A128A111E
:100388008312031326080A128A15E6270A128A110D
:100398008312031327080A128A15E6270A128A11FC
:1003A8000D3083120313CD004D08F50002300A12F8
:1003B8008A112E260A128A1135300A128A119427B8
:1003C8000A128A113C280A128A110C288312031374
:1003D800C90094121A30F500F830F400F40BF22931
:1003E800F50BF22900008312031394160630490214
:1003F8000318FF29002A242A8316031387120716D5
:10040800043083120313490203180B2A0C2A102AFA
:10041800831603138711132A8316031387150430D1
:10042800831203134906031D1A2A1B2A1E2A831640
:100438000313851683121412831603139417932A31
:1004480006304902031C292A2A2A932A83160313F1
:10045800871507168312031394168316031394172C
:10046800073083120313490603193B2A3C2A422A00
:100478000F304906031D412A422A452A83160313D1
:100488009410083083124906031D4B2A4C2A822AED
:100498001412831603139101940183120313450860
:1004A800F4004608F5004708F6004808F70002304F
:1004B8000310F40DF50DF60DF70DFF3E031D5C2A34
:1004C8007708BB007608BA007508B9007408B80048
:1004D8000030BF007A30BE001230BD000030BC00D2
:1004E8000A128A11B9240A128A11831203133808CE
:1004F800FF3E8316031393008C11932A1416831658
:10050800031391131114831203134508831603135D
:1005180093008B170B178C15831203138C118312FE
:100528001408490494008316031314130800803038
:100538007306253003197406031DA32AA42AB72AB3
:10054800043075067604031DAA2AAB2AB72A831637
:1005580003131812181583160317871119308316F9
:10056800031399009A018030730625300319740625
:10057800031DBF2AC02AD32A083075067604031D36
:10058800C62AC72AD32A83160313181218118316EA
:100598000317871533308316031399009A018030A7
:1005A8007306253003197406031DDB2ADC2AEE2A9C
:1005B80075037604031DE12AE22AEE2A8316031343
:1005C8001812181583160317871519308316031385
:1005D80099009A01B1307306283003197406031D77
:1005E800F62AF72A0A2B043075067604031DFD2A1D
:1005F800FE2A0A2B831603131812181583160317DD
:10060800871517308316031399009A01B1307306C2
:10061800283003197406031D122B132B262B0830C0
:1006280075067604031D192B1A2B262B8316031324
:10063800181218118316031787152F308316031302
:1006480099009A01B1307306283003197406031D06
:100658002E2B2F2B412B75037604031D342B352BA2
:10066800412B8316031318121811831603178715C5
:1006780005308316031399009A0183120313981700
:10068800181318168316031398168C1208000230D4
:10069800F6008630F5009930F400F40B512BF50B79
:1006A800512BF60B512B01300A128A11D4270A124A
:1006B8008A11D2300A128A15DB270A128A116B3086
:1006C8000A128A15DB270A128A1101300A128A15C2
:1006D800DB270A128A1100300A128A11D4270A125B
:1006E8008A11D2300A128A15DB270A128A111B30A6
:1006F8000A128A15DB270A128A1100300A128A1593
:10070800DB270A128A1100300A128A11D4270A122A
:100718008A11D2300A128A15DB270A128A111C3074
:100728000A128A15DB270A128A1100300A128A1562
:10073800DB270A128A1100300A128A11D4270A12FA
:100748008A11D2300A128A15DB270A128A111A3046
:100758000A128A15DB270A128A1100300A128A1532
:10076800DB270A128A1100300A128A11D4270A12CA
:100778008A11D2300A128A15DB270A128A11193017
:100788000A128A15DB270A128A1107300A128A15FB
:10079800DB270A128A110A128A15C8270A128A1137
:1007A800080083160317880189018316031385013E
:1007B80086018801831203138501860188010430AC
:1007C8000A128A113C270A128A1100308312031375
:1007D800C8000130C7008630C600A030C500083008
:1007E8000A128A11EA210A128A110A128A114B2363
:1007F8000A128A110A128A1121250A128A110A126A
:100808008A11BA270A128A11F50101300A128A11CF
:100818002E260A128A1111300A128A1194270A12F6
:100828008A11023083120313CA004A08F500023005
:100838000A128A112E260A128A1120300A128A11E7
:1008480094270A128A11333083120313CC00BB3069
:10085800CB00DF30CA00CA0B2F2CCB0B2F2CCC0BB4
:100868002F2C0A128A11BA270A128A118030F30033
:100878002530F4000430F5000030F6000A128A1121
:100888009B220A128A11831203138C1283160313F4
:100898008C160B178B17080083120313B901F41F6A
:1008A800562C572C5E2CF309F409F30A0319F40AA1
:1008B800B901B90AF61F612C622C6B2CF509F609EF
:1008C800F50A0319F60A0130F7007708B906BA01E4
:1008D800BB01730874040319722C732CAA2CB80179
:1008E800B80A812C01300310F30DF40DFF3E031DEF
:1008F800772C0130F7007708B807F41F842C852C73
:10090800762C01300310BA0DBB0DFF3E031D862C5B
:1009180074087602031D922C73087502031C952C2B
:10092800962C9D2C7308F5027408031CF603F60236
:100938003A1401300310F40CF30CFF3E031D9E2CF7
:100948000130B802031DA92CAA2C852C39080319DB
:10095800AE2CAF2CB42CBA09BB09BA0A0319BB0ACE
:100968003B08F4003A08F300080000308312031330
:10097800C3000030C2000030C1000030C0003B0896
:100988003A04390438040319CA2CCB2C182DC40195
:10099800C40ADB2C0130F3000310B80DB90DBA0DF1
:1009A800BB0DF30BD02C0130F3007308C407BB1F39
:1009B800DE2CDF2CCE2C0130F3000310C00DC10D4E
:1009C800C20DC30DF30BE12C3B083F02031DF62CAF
:1009D8003A083E02031DF62C39083D02031DF62C89
:1009E80038083C02031CF92CFA2C092D3808BC02E3
:1009F8003908031C390FBD023A08031C3A0FBE021E
:100A08003B08031C3B0FBF02401401300310BB0C12
:100A1800BA0CB90CB80CFF3E031D0A2D0130C402F4
:100A2800031D172D182DDF2C4308BB004208BA0000
:100A38004108B9004008B800080083120313881160
:100A480008122530F6005B30F500F50B292DF60B62
:100A5800292D2E2D30300A128A1171260A128A1178
:100A68000B30F6006230F500F50B382DF60B382DFB
:100A7800000030300A128A1171260A128A11423097
:100A8800F500F50B452D000030300A128A11712649
:100A98000A128A114230F500F50B502D000038304B
:100AA8000A128A1171260A128A114230F500F50BD2
:100AB8005B2D000008300A128A1171260A128A1169
:100AC8004230F500F50B662D000001300A128A113C
:100AD80071260A128A114230F500F50B712D0000BB
:100AE80006300A128A1171260A128A114230F5005C
:100AF800F50B7C2D00000C300A128A1171260A129F
:100B08008A11080083120313B901F61F8C2D8D2D4D
:100B1800942DF509F609F50A0319F60AB901B90A77
:100B2800F41F972D982D9D2DF309F409F30A031945
:100B3800F40A730874040319A22DA32DD22DB80149
:100B4800B80AB12D01300310F30DF40DFF3E031D5B
:100B5800A72D0130F7007708B807F41FB42DB52D7D
:100B6800A62D74087602031DBB2D73087502031C9D
:100B7800BE2DBF2DC52D7308F5027408031CF6039E
:100B8800F60201300310F40CF30CFF3E031DC62DD2
:100B98000130B802031DD12DD22DB52D3908031906
:100BA800D62DD72DDC2DF509F609F50A0319F60A15
:100BB8007608F4007508F300080083120313C101D6
:100BC800C2010A30F3000030F400831203133D0819
:100BD800F6003C08F5000A128A1186250A128A11C5
:100BE800730883120313BF0041083E07C000400882
:100BF80084003F0880000A30F3000030F400410808
:100C08003E07BF003F08840000083C02F5003D088D
:100C1800031C3D03F6000A128A1150240A128A1195
:100C2800740883120313BD007308BC000130C107A8
:100C38000318C20A0030C2074208803AFF00803019
:100C48007F02031D292E03304102031C2C2E2D2E5A
:100C5800E52D080083120313B80088110812380321
:100C6800031D372E382E3F2E80300A128A11712626
:100C78000A128A114B2E02303806031D442E452EC7
:100C88004B2EC0300A128A1171260A128A11683056
:100C9800F700E430F600F60B4F2EF70B4F2E00004E
:100CA80075080319582E592E702E622E14300A1208
:100CB8008A1171260A128A110130F5027508031D7E
:100CC800662E672E5A2E6830F700E430F600F60BD1
:100CD8006B2EF70B6B2E00000800F400741C752EA9
:100CE800762E7A2E8312031308177D2E8312031390
:100CF8000813F41C802E812E832E8817842E8813C7
:100D0800741D872E882E8A2E06148B2E0610F41D2D
:100D18008E2E8F2E912E8614922E8610741E952E4E
:100D2800962E982E0615992E0611F41E9C2E9D2E91
:100D38009F2E8615A02E8611741FA32EA42EA62ED4
:100D48000616A72E0612F41FAA2EAB2EAD2E861657
:100D5800AE2E86120A128A15F2270A128A11080084
:100D6800F500CA2E3030F22E3130F22E3230F22E0B
:100D78003330F22E3430F22E3530F22E3630F22E59
:100D88003730F22E3830F22E3930F22E7508F30053
:100D9800F4017408003A0319D22EF22E7308003AAF
:100DA8000319B62E013A0319B82E033A0319BA2EBD
:100DB800013A0319BC2E073A0319BE2E013A03194A
:100DC800C02E033A0319C22E013A0319C42E0F3A52
:100DD8000319C62E013A0319C82EF22E08008316ED
:100DE80003131419F82EF92EF32E11081F39031DB9
:100DF800FE2EFF2EF32E080007308A000408840A0E
:100E08008207003458343A342034203420342034D3
:100E180059343A34203420342034203420345334A4
:100E28003A3400344D3469346E3469347034723471
:100E38006F3479346534633474346F342034323425
:100E480000344A346F347334653420345334613495
:100E58006E34743469347A346F3400344F34663401
:100E6800663400344134003452340034563400348B
:100E7800F30008307306031D422F432F482F8316B3
:100E880003130F168F160F1704307306031D4D2F0B
:100E98004E2F532F831603130F128F160F1702307E
:100EA8007306031D582F592F5E2F831603130F1631
:100EB8008F120F177303031D622F632F682F83167A
:100EC80003130F128F120F17831603130F14080042
:100ED800F4000A128A11F3260A128A1183160313E0
:100EE80091150A128A11F3260A128A118312031322
:100EF8001308F3007308F5000A128A11F3260A1280
:100F08008A117408031D892F8A2F8E2F83160313C5
:100F18009112912F83160313911611167508080064
:100F2800F7008312031388150812F601AC2F760810
:100F3800770784000A128A1100270A128A110A12F6
:100F48008A1171260A128A110130F5007508F60710
:100F58007608770784000A128A1100270A128A1174
:100F6800003A031DB82FB92F9B2F080083120313D3
:100F78008811081201300A128A1171260A128A1180
:100F88001A30F600F830F500F50BC82FF60BC82F0D
:100F9800000002300A128A1171260A128A1108000A
:100FA800F3000A128A11F3260A128A117303031D29
:100FB800DE2FDF2FE22F8316031311147308031D8E
:100FC800E62FE72FEA2F83160313911483120313D6
:100FD8008C110800831203138C1EF32FF42FF82FA3
:100FE8001A08F0007008D20072088A00710E830097
:060FF800FE0E7E0E090052
:101F7800013400340134033464008001840A040607
:101F8800031900340406C12F0A128A11F3260A1213
:101F98008A158316031311150800F300831203131F
:101FA8000C1ED72FD82FD22F730899000800F300E2
:101FB8000A128A11F3260A128A1573088312031368
:101FC80093000800F500831203138815081275089A
:101FD8000A128A1171260A128A150800831203133D
:101FE8008816C730F300F82FF30BF72FFB2FFC2FC1
:081FF800831203138812080094
:04400E00D420FF3F7C
:00000001FF
