:060000000A128A110C280F
:10000800FE00030EF0000A08F1000A128A11002C03
:100018000A128A110F28F801F901FA018312031351
:10002800B601B70183010A128A11DA2A80307206F2
:10003800253003197306031D222823283628043087
:1000480074067504031D29282A28362883160313E5
:1000580018121815831603178711193083160313FE
:1000680099009A0180307206253003197306031D22
:100078003E283F285228083074067504031D452879
:1000880046285228831603131812181183160317CB
:10009800871533308316031399009A01803072064E
:1000A800253003197306031D5A285B286D2874032D
:1000B8007504031D602861286D2883160313181220
:1000C800181583160317871519308316031399001B
:1000D8009A01B1307206283003197306031D75287A
:1000E80076288928043074067504031D7C287D2829
:1000F80089288316031318121815831603178715F2
:1001080017308316031399009A01B130720628300C
:1001180003197306031D91289228A5280830740630
:100128007504031D98289928A52883160313181207
:1001380018118316031787152F3083160313990098
:100148009A01B1307206283003197306031DAD28D1
:10015800AE28C02874037504031DB328B428C0282A
:100168008316031318121811831603178715053001
:100178008316031399009A0183120313981718130F
:1001880018168316031398168C1208008316031783
:100198008801890183160313850186018801890175
:1001A800831203138501880189018601870183165B
:1001B80003130711831203130715831603138710FC
:1001C8008312031387148316031307108312031370
:1001D800071404300A128A1113230A128A110030F4
:1001E80083120313AB000130AA008630A900A030A7
:1001F800A8000A128A11A0220A128A110A128A1168
:10020800B5210A128A110A128A1197230A128A1131
:10021800F40101300A128A111A220A128A110E30C8
:100228000A128A1171230A128A11023083120313E7
:10023800B0003008F40002300A128A111A220A1299
:100248008A1101300A128A1171230A128A111A308E
:1002580083120313B2005E30B1006D30B000B00BF2
:100268003329B10B3329B20B33293A290A128A11DF
:1002780097230A128A118030F2002530F3000430E7
:10028800F4000030F5000A128A111A200A128A11A5
:1002980008000030F6000030F5000030F4000030AF
:1002A800F3008312031323082204210420040319F2
:1002B8005E295F29AC29F701F70A6F290130F2009E
:1002C8000310A00DA10DA20DA30DF20B642901309E
:1002D800F2007208F707A31F7229732962290130F7
:1002E800F2000310F30DF40DF50DF60DF20B752960
:1002F80023082702031D8A2922082602031D8A29AA
:1003080021082502031D8A2920082402031C8D299F
:100318008E299D292008A4022108031C210FA5026B
:100328002208031C220FA6022308031C230FA7027E
:10033800731401300310A30CA20CA10CA00CFF3EF7
:10034800031D9E290130F702031DAB29AC2973292F
:100358007608A3007508A2007408A1007308A0001D
:10036800080083120313881108122530F5005B304A
:10037800F400F40BBD29F50BBD29C22930300A124F
:100388008A115D220A128A110B30F5006230F400DE
:10039800F40BCC29F50BCC29000030300A128A1155
:1003A8005D220A128A114230F400F40BD9290000A8
:1003B80030300A128A115D220A128A114230F40082
:1003C800F40BE429000038300A128A115D220A125F
:1003D8008A114230F400F40BEF29000008300A12A9
:1003E8008A115D220A128A114230F400F40BFA29AC
:1003F800000001300A128A115D220A128A11423065
:10040800F400F40B052A000006300A128A115D2256
:100418000A128A114230F400F40B102A00000C3042
:100428000A128A115D220A128A110800F700831243
:100438000313881108127703031D232A242A2B2A61
:1004480080300A128A115D220A128A11372A023074
:100458007706031D302A312A372AC0300A128A113A
:100468005D220A128A116830F600E430F500F50BB7
:100478003B2AF60B3B2A000074080319442A452A34
:100488005C2A4E2A14300A128A115D220A128A1135
:100498000130F4027408031D522A532A462A683090
:1004A800F600E430F500F50B572AF60B572A000042
:1004B8000800F300731C612A622A662A8312031358
:1004C8000817692A831203130813F31C6C2A6D2A70
:1004D8006F2A8817702A8813731D732A742A762A3C
:1004E8000614772A0610F31D7A2A7B2A7D2A861499
:1004F8007E2A8610731E812A822A842A0615852A56
:100508000611F31E882A892A8B2A86158C2A8611B9
:10051800731F8F2A902A922A0616932A0612F31F0F
:10052800962A972A992A86169A2A86120A128A11D0
:10053800C9230A128A110800283083120313940071
:10054800831603139101831203132808AC002908AA
:10055800AD002A08AE002B08AF0002300310AC0D26
:10056800AD0DAE0DAF0DFF3E031DB22A2F08A3003F
:100578002E08A2002D08A1002C08A0000030A7001A
:100588007A30A6001230A5000030A4000A128A11A1
:100598004D210A128A11831203132008FF3E831685
:1005A8000313930094018715071608000A128A118D
:1005B800CA200A128A110A128A11F7230A128A110A
:1005C8006830F2000030F3000A128A11E4230A129C
:1005D8008A110030F200F3000A128A1143230A122A
:1005E8008A11720883120313B3003308FA000A123F
:1005F8008A11EE230A128A11023083120313B500FE
:100608000430B400B930B300B30B082BB40B082B7B
:10061800B50B082B0F2BDF2A0A128A110C28F200BF
:1006280008307206031D192B1A2B1F2B8316031370
:100638000F168F160F1704307206031D242B252B57
:100648002A2B831603130F128F160F170230720608
:10065800031D2F2B302B352B831603130F168F12E8
:100668000F177203031D392B3A2B3F2B83160313E5
:100678000F128F120F17831603130F1408000A1294
:100688008A11D7230A128A118316031391150A12A5
:100698008A11D7230A128A11831203131308F4004C
:1006A800F5017408F6007508F7000A128A11D723B5
:1006B8000A128A1172037304031D632B642B682BBF
:1006C8008316031391126B2B8316031391161116BD
:1006D8007708F3007608F2000800F6008312031387
:1006E80088150812F501892B7508760784000A1207
:1006F8008A11B1230A128A110A128A115D220A127A
:100708008A110130F4007408F5077508760784002B
:100718000A128A11B1230A128A11003A031D952B75
:10072800962B782B080083120313881108120130C6
:100738000A128A115D220A128A111A30F500F8305D
:10074800F400F40BA52BF50BA52B000002300A12C0
:100758008A115D220A128A11080003308A000408EF
:10076800840A820700344A346F3473346534203481
:10077800533461346E34743469347A346F340034E9
:1007880048346F346C346134003483120313881690
:10079800C730F200CF2BF20BCE2BD22BD32B8312E8
:1007A800031388120800831603131419DC2BDD2B9E
:1007B800D72B11081F39031DE22BE32BD72B080079
:1007C8000A128A11D7230A128A1172088312031394
:1007D800930008000A128A11D7230A128A11831675
:1007E8000313111508000A128A11D7230A128A1155
:1007F800831603131114080071088A00700E830011
:06080800FE0E7E0E090049
:04400E00D420FF3F7C
:00000001FF
