:060000000A128A110C280F
:10000800FE00030EF0000A08F1000A128A11F42F0C
:100018000A128A110F28FA01FB0183132030840089
:1000280039300A128A11EC270A128A1183010A123E
:100038008A111E280A128A11B9230A128A1101305C
:100048000A128A1197270A128A11D2300A128A11C3
:10005800D8270A128A113B300A128A11D8270A12A5
:100068008A1101300A128A1197270A128A11D3308D
:100078000A128A11D8270A128A1100300A128A1124
:100088002F270A128A1183120313CB00CC010030E8
:100098000A128A112F270A128A1183120313CD001C
:1000A800CE014D08CE00CD014B084D04AC004C08E4
:1000B8004E04AD0000300A128A112F270A128A1145
:1000C80083120313CB00CC0100300A128A112F27A8
:1000D8000A128A1183120313CD00CE014D08CE00F7
:1000E800CD014B084D04AA004C084E04AB0000306B
:1000F8000A128A112F270A128A1183120313CB00BE
:10010800CC0100300A128A112F270A128A11831291
:100118000313CD00CE014D08CE00CD014B084D0490
:10012800A8004C084E04A90000300A128A112F2793
:100138000A128A1183120313CB00CC0100300A1271
:100148008A112F270A128A1183120313CD00CE01B8
:100158004D08CE00CD014B084D04A6004C084E04B6
:10016800A70000300A128A112F270A128A11831257
:100178000313CB00CC0100300A128A112F270A1270
:100188008A1183120313CD00CE014D08CE00CD0194
:100198004B084D04A4004C084E04A50000300A1278
:1001A8008A112F270A128A1183120313CB00CC015C
:1001B80000300A128A112F270A128A118312031398
:1001C800CD00CE014D08CE00CD014B084D04A20054
:1001D8004C084E04A30001300A128A112F270A1274
:1001E8008A1183120313CB00CC0100300A128A1142
:1001F8002F270A128A1183120313CD00CE014D084E
:10020800CE00CD014B084D04A0004C084E04A100BF
:100218000A128A11E3270A128A111A308312031369
:10022800CC00F730CB00CB0B1729CC0B17291C2996
:10023800831203132508BE002408BD007B30CB00C1
:100248004B08BF000A128A11BB250A128A117B08C3
:100258000A128A118E260A128A1183120313CB00FE
:100268004B08B8007C080A128A118E260A128A11D5
:1002780083120313CB004B08B7007D080A128A11BA
:100288008E260A128A1183120313CB004B08B6007C
:10029800F40101300A128A1108260A128A11013063
:1002A8000A128A1157270A128A11F40102300A1217
:1002B8008A1108260A128A118312031336080A12B1
:1002C8008A11CC270A128A118312031337080A12DB
:1002D8008A11CC270A128A118312031338080A12CA
:1002E8008A11CC270A128A11831203132308BE002D
:1002F8002208BD007A30CB004B08BF000A128A11D1
:10030800BB250A128A117A080A128A118E260A1245
:100318008A1183120313CB004B08B5007B080A121D
:100328008A118E260A128A1183120313CB004B08F6
:10033800B4007C080A128A118E260A128A118312C6
:100348000313CB004B08B3000630CB004B08F40076
:1003580002300A128A1108260A128A11831203131C
:1003680033080A128A11CC270A128A11831203133E
:1003780034080A128A11CC270A128A11831203132D
:1003880035080A128A11CC270A128A1123280A1260
:100398008A110C2883120313C70094121A3083128F
:1003A8000313C400F730C300C30BD829C40BD829E2
:1003B800DD29831203139416063047020318E52932
:1003C800E6290A2A831603138712071604308312B4
:1003D800031347020318F129F229F6298316031398
:1003E8008711F92983160313871504308312031321
:1003F8004706031D002A012A042A831603138516BB
:1004080083121412831603139417772A06304702AF
:10041800031C0F2A102A772A831603138715071639
:100428008312031394168316031394170730831249
:10043800031347060319212A222A282A0F304706C0
:10044800031D272A282A2B2A831603139410083001
:1004580083124706031D312A322A662A141283168C
:10046800031391019401831203133F08C30040084A
:10047800C4004108C5004208C60002300310C30D7D
:10048800C40DC50DC60DFF3E031D422A4608F500E2
:100498004508F4004408F3004308F2000030F9006E
:1004A8007A30F8001230F7000030F6000A128A118C
:1004B80095240A128A117208FF3E831603139300CB
:1004C8008C11772A141683160313911311148312AF
:1004D80003133F088316031393008B170B178C1510
:1004E800831203138C118312140847049400831693
:1004F800031314130800803072062530031973069D
:10050800031D872A882A9B2A043074067504031D54
:100518008E2A8F2A9B2A83160313181218158316FE
:100528000317871119308316031399009A01803035
:100538007206253003197306031DA32AA42AB72AB5
:10054800083074067504031DAA2AAB2AB72A831635
:1005580003131812181183160317871533308316DF
:10056800031399009A018030720625300319730627
:10057800031DBF2AC02AD22A74037504031DC52A85
:10058800C62AD22A831603131812181583160317BE
:10059800871519308316031399009A01B130720632
:1005A800283003197306031DDA2ADB2AEE2A0430E1
:1005B80074067504031DE12AE22AEE2A8316031342
:1005C8001812181583160317871517308316031387
:1005D80099009A01B1307206283003197306031D79
:1005E800F62AF72A0A2B083074067504031DFD2A1B
:1005F800FE2A0A2B831603131812181183160317E1
:1006080087152F308316031399009A01B1307206AB
:10061800283003197306031D122B132B252B740383
:100628007504031D182B192B252B83160313181279
:1006380018118316031787150530831603139900BD
:100648009A018312031398171813181683160313A5
:1006580098168C1208000230F5008630F4009930A4
:10066800F300F30B352BF40B352BF50B352B013041
:100678000A128A1197270A128A11D2300A128A118D
:10068800D8270A128A116B300A128A11D8270A123F
:100698008A1101300A128A11D8270A128A110030E9
:1006A8000A128A1197270A128A11D2300A128A115D
:1006B800D8270A128A111B300A128A11D8270A125F
:1006C8008A1100300A128A11D8270A128A110030BA
:1006D8000A128A1197270A128A11D2300A128A112D
:1006E800D8270A128A111C300A128A11D8270A122E
:1006F8008A1100300A128A11D8270A128A1100308A
:100708000A128A1197270A128A11D2300A128A11FC
:10071800D8270A128A111A300A128A11D8270A12FF
:100728008A1100300A128A11D8270A128A11003059
:100738000A128A1197270A128A11D2300A128A11CC
:10074800D8270A128A1119300A128A11D8270A12D0
:100758008A1107300A128A11D8270A128A110A1236
:100768008A11E3270A128A110800831603178801E1
:1007780089018316031385018601880183120313F7
:1007880085018601880104300A128A11FF260A129F
:100798008A11003083120313C2000130C100863071
:1007A800C000A030BF0008300A128A11CE210A12F8
:1007B8008A110A128A112F230A128A110A128A111F
:1007C800FD240A128A110A128A117D270A128A1137
:1007D800F40101300A128A1108260A128A1111300E
:1007E8000A128A1157270A128A1102308312031338
:1007F800C8004808F40002300A128A1108260A12B2
:100808008A1120300A128A1157270A128A113330A6
:1008180083120313CA00BB30C900DF30C800C80BFD
:10082800132CC90B132CCA0B132C0A128A117D27FF
:100838000A128A118030F2002530F3000430F400E7
:100848000030F5000A128A117F220A128A11080064
:1008580083120313BA01F31F322C332C3A2CF209FA
:10086800F309F20A0319F30ABA01BA0AF51F3D2C73
:100878003E2C472CF409F509F40A0319F50A01304E
:10088800F6007608BA06BB01BC01720873040319A6
:100898004E2C4F2C862CB901B90A5D2C013003105F
:1008A800F20DF30DFF3E031D532C0130F6007608C0
:1008B800B907F31F602C612C522C01300310BB0DBB
:1008C800BC0DFF3E031D622C73087502031D6E2CC0
:1008D80072087402031C712C722C792C7208F402B1
:1008E8007308031CF503F5023B1401300310F30CE5
:1008F800F20CFF3E031D7A2C0130B902031D852C32
:10090800862C612C3A0803198A2C8B2C902CBB0955
:10091800BC09BB0A0319BC0A3C08F3003B08F200F7
:100928000800003083120313BD000030BC00003003
:10093800BB000030BA00750874047304720403190C
:10094800A62CA72CF42CBE01BE0AB72C0130B90086
:100958000310F20DF30DF40DF50DB90BAC2C0130AD
:10096800B9003908BE07F51FBA2CBB2CAA2C0130D8
:10097800B9000310BA0DBB0DBC0DBD0DB90BBD2CD4
:1009880075087902031DD22C74087802031DD22C35
:1009980073087702031DD22C72087602031CD52C2B
:1009A800D62CE52C7208F6027308031C730FF702A5
:1009B8007408031C740FF8027508031C750FF902FC
:1009C8003A1401300310F50CF40CF30CF20CFF3E52
:1009D800031DE62C0130BE02031DF32CF42CBB2CA6
:1009E8003D08F5003C08F4003B08F3003A08F20023
:1009F800080083120313881108122530F5005B30B4
:100A0800F400F40B052DF50B052D0A2D30300A12D4
:100A18008A114B260A128A110B30F5006230F40055
:100A2800F40B142DF50B142D000030300A128A1126
:100A38004B260A128A114230F400F40B212D0000D3
:100A480030300A128A114B260A128A114230F400F9
:100A5800F40B2C2D000038300A128A114B260A128A
:100A68008A114230F400F40B372D000008300A12C6
:100A78008A114B260A128A114230F400F40B422DD7
:100A8800000001300A128A114B260A128A114230DC
:100A9800F400F40B4D2D000006300A128A114B2683
:100AA8000A128A114230F400F40B582D00000C3061
:100AB8000A128A114B260A128A110800F801F51F3A
:100AC800662D672D6E2DF409F509F40A0319F50A48
:100AD800F801F80AF31F712D722D772DF209F30929
:100AE800F20A0319F30A7208730403197C2D7D2D89
:100AF800AC2DF701F70A8B2D01300310F20DF30D21
:100B0800FF3E031D812D0130F6007608F707F31F1D
:100B18008E2D8F2D802D73087502031D952D72085B
:100B28007402031C982D992D9F2D7208F4027308E6
:100B3800031CF503F50201300310F30CF20CFF3E21
:100B4800031DA02D0130F702031DAB2DAC2D8F2DF9
:100B580078080319B02DB12DB62DF409F509F40A5A
:100B68000319F50A7508F3007408F20008008312E7
:100B78000313C201C3010A30F2000030F3008312EC
:100B880003133E08F5003D08F4000A128A11622595
:100B98000A128A11720883120313C00042083F0721
:100BA800C10041088400400880000A30F20000308B
:100BB800F30042083F07C0004008840000083D02D7
:100BC800F4003E08031C3E03F5000A128A112C2487
:100BD8000A128A11730883120313BE007208BD003B
:100BE8000130C2070318C30A0030C3074308803A1C
:100BF800FF0080307F02031D032E03304202031CD6
:100C0800062E072EBF2D0800F70083120313881144
:100C180008127703031D112E122E192E80300A1286
:100C28008A114B260A128A11252E02307706031DD7
:100C38001E2E1F2E252EC0300A128A114B260A128C
:100C48008A116830F600E430F500F50B292EF60B12
:100C5800292E000074080319322E332E4A2E3C2EFA
:100C680014300A128A114B260A128A110130F40232
:100C78007408031D402E412E342E6830F600E430EF
:100C8800F500F50B452EF60B452E00000800F30085
:100C9800731C4F2E502E542E831203130817572EF1
:100CA800831203130813F31C5A2E5B2E5D2E88172C
:100CB8005E2E8813731D612E622E642E0614652E17
:100CC8000610F31D682E692E6B2E86146C2E861066
:100CD800731E6F2E702E722E0615732E0611F31EBC
:100CE800762E772E792E86157A2E8611731F7D2EF5
:100CF8007E2E802E0616812E0612F31F842E852E38
:100D0800872E8616882E86120A128A11B1270A1291
:100D18008A110800F400A42E3030CC2E3130CC2EAD
:100D28003230CC2E3330CC2E3430CC2E3530CC2E45
:100D38003630CC2E3730CC2E3830CC2E3930CC2E25
:100D48007408F200F3017308003A0319AC2ECC2E94
:100D58007208003A0319902E013A0319922E033AA9
:100D68000319942E013A0319962E073A0319982E5F
:100D7800013A03199A2E033A03199C2E013A0319D2
:100D88009E2E0F3A0319A02E013A0319A22ECC2E3B
:100D9800080006308A000408840A820700345834A0
:100DA8003A34203420342034203459343A3420342E
:100DB800203420342034203453343A3400344D3431
:100DC80069346E346934703472346F34793465340C
:100DD800633474346F342034323400344A346F341A
:100DE800733465342034533461346E347434693464
:100DF8007A346F340034F20008307206031D052F70
:100E0800062F0B2F831603130F168F160F17043098
:100E18007206031D102F112F162F831603130F129E
:100E28008F160F1702307206031D1B2F1C2F212F40
:100E3800831603130F168F120F177203031D252F26
:100E4800262F2B2F831603130F128F120F178316BB
:100E580003130F140800F3000A128A11BF270A129D
:100E68008A118316031391150A128A11BF270A12D1
:100E78008A11831203131308F2007208F4000A128D
:100E88008A11BF270A128A117308031D4C2F4D2F90
:100E9800512F831603139112542F8316031391169F
:100EA800111674080800F600831203138815081237
:100EB800F5016F2F7508760784000A128A11CD266E
:100EC8000A128A110A128A114B260A128A11013053
:100ED800F4007408F5077508760784000A128A1169
:100EE800CD260A128A11003A031D7B2F7C2F5E2F14
:100EF8000800831203138811081201300A128A119C
:100F08004B260A128A111A30F500F830F400F40B57
:100F18008B2FF50B8B2F000002300A128A114B26FB
:100F28000A128A110800F2000A128A11BF270A124F
:100F38008A117203031DA12FA22FA52F8316031355
:100F480011147208031DA92FAA2FAD2F831603139E
:100F58009114831203138C1108008312031388164B
:100F6800C730F200B72FF20BB62FBA2FBB2F831260
:100F7800031388120800831603131419C42FC52FEE
:100F8800BF2F11081F39031DCA2FCB2FBF2F0800F1
:100F9800F400831203138815081274080A128A11C0
:100FA8004B260A128A110800F2000A128A11BF277A
:100FB8000A128A11720883120313930008000A1296
:100FC8008A11BF270A128A11831603131115080004
:100FD80064008001840A0406031900340406ED2F16
:0E0FE80071088A00700E8300FE0E7E0E090056
:04400E00D420FF3F7C
:00000001FF
