:060000000A128A110C280F
:10000800FE00030EF1000A08F2000A128A11B12F4D
:100018000A128A110F280A128A11FE270A128A1157
:10002800D1000A128A11FF270A128A11D2008313FB
:100038002030840039300A128A15EF270A128A11F3
:10004800F801F901FA0183010A128A112B280A1210
:100058008A11B7230A128A1101300A128A119727C6
:100068000A128A11D2300A128A11E9270A128A1151
:100078003B300A128A11E9270A128A1100300A1243
:100088008A1197270A128A11D3300A128A11E9278E
:100098000A128A1100300A128A112F270A128A11AD
:1000A80083120313CE004E08B80000300A128A11DA
:1000B8002F270A128A1183120313CE004E08B700A5
:1000C80000300A128A112F270A128A118312031389
:1000D800CE004E08B60000300A128A112F270A12E5
:1000E8008A1183120313CE004E08B50000300A129D
:1000F8008A112F270A128A1183120313CE004E0881
:10010800B40000300A128A112F270A128A118312AA
:100118000313CE004E08B30000300A128A112F27AD
:100128000A128A1183120313CE004E08B20000305F
:100138000A128A112F270A128A1183120313CE007A
:100148004E08B10000300A128A112F270A128A11AC
:1001580083120313CE004E08F80000300A128A11E9
:100168002F270A128A1183120313CE004E08B000FB
:1001780000300A128A112F270A128A1183120313D8
:10018800CE004E08AF0000300A128A112F270A123B
:100198008A1183120313CE004E08AE0000300A12F3
:1001A8008A112F270A128A1183120313CE004E08D0
:1001B800AD0001300A128A112F270A128A11831200
:1001C8000313CE004E08AC000A128A15F7270A124C
:1001D8008A1178080A128A11F4270A128A1134300F
:1001E80083120313CF00F130CE00CE0BF928CF0BCA
:1001F800F92801300A128A1197270A128A115030F9
:100208000A128A11E9270A128A1102300A128A117F
:10021800E9270A128A110A128A15F7270A128A117F
:10022800780883120313CE00CF014E08BD004F0893
:10023800BE007A30D0005008BF000A128A11BB25D0
:100248000A128A117A080A128A118E260A128A114B
:1002580083120313CE004E08AB007B080A128A11E2
:100268008E260A128A1183120313CE004E08AA00A2
:100278007C080A128A118E260A128A118312031325
:10028800CE004E08A900F50101300A128A1108268D
:100298000A128A1101300A128A1157270A128A1182
:1002A800F50102300A128A1108260A128A118312ED
:1002B800031329080A128A11DD270A128A118312E8
:1002C80003132A080A128A11DD270A128A118312D7
:1002D80003132B080A128A11DD270A128A118312C6
:1002E80003132F08CE00CF014E08BD004F08BE00F3
:1002F8007930D0005008BF000A128A11BB250A12B3
:100308008A1179080A128A118E260A128A11831212
:100318000313CE004E08A8007A080A128A118E2606
:100328000A128A1183120313CE004E08A7007B0815
:100338000A128A118E260A128A1183120313CE001A
:100348004E08A6000630CE004E08F50002300A120C
:100358008A1108260A128A118312031326080A1220
:100368008A11DD270A128A118312031327080A1239
:100378008A11DD270A128A118312031328080A1228
:100388008A11DD270A128A1130280A128A110C28CC
:1003980083120313CA0094121A30F500F830F400DF
:1003A800F40BD429F50BD4290000831203139416F7
:1003B80006304A020318E129E229062A83160313A4
:1003C800871207160430831203134A020318ED2913
:1003D800EE29F229831603138711F52983160313CF
:1003E80087150430831203134A06031DFC29FD29CF
:1003F800002A831603138516831214128316031317
:100408009417752A06304A02031C0B2A0C2A752AEF
:10041800831603138715071683120313941683167E
:10042800031394170730831203134A0603191D2A6E
:100438001E2A242A0F304A06031D232A242A272A83
:10044800831603139410083083124A06031D2D2ABD
:100458002E2A642A1412831603139101940183121D
:1004680003134608F4004708F5004808F600490851
:10047800F70002300310F40DF50DF60DF70DFF3EF1
:10048800031D3E2A7708BC007608BB007508BA0031
:100498007408B9000030C0007A30BF001230BE00C6
:1004A8000030BD000A128A1193240A128A1183129D
:1004B80003133908FF3E8316031393008C11752A22
:1004C8001416831603139113111483120313460889
:1004D8008316031393008B170B178C1583120313C2
:1004E8008C11831214084A049400831603131413FE
:1004F800080080307306253003197406031D852A09
:10050800862A992A043075067604031D8C2A8D2ABA
:10051800992A8316031318121815831603178711BF
:1005280019308316031399009A0180307306253019
:1005380003197406031DA12AA22AB52A08307506D4
:100548007604031DA82AA92AB52A831603131812AC
:100558001811831603178715333083160313990070
:100568009A0180307306253003197406031DBD2ACD
:10057800BE2AD02A75037604031DC32AC42AD02AAA
:1005880083160313181218158316031787151930C5
:100598008316031399009A01B130730628300319A2
:1005A8007406031DD82AD92AEC2A04307506760465
:1005B800031DDF2AE02AEC2A8316031318121815E4
:1005C80083160317871517308316031399009A01AA
:1005D800B1307306283003197406031DF42AF52A6E
:1005E800082B083075067604031DFB2AFC2A082B05
:1005F80083160313181218118316031787152F3043
:100608008316031399009A01B13073062830031931
:100618007406031D102B112B232B75037604031D61
:10062800162B172B232B8316031318121811831656
:100638000317871505308316031399009A0183124F
:1006480003139817181318168316031398168C1289
:1006580008000230F6008630F5009930F400F40BFB
:10066800332BF50B332BF60B332B01300A128A117F
:1006780097270A128A11D2300A128A11E9270A1218
:100688008A116B300A128A11E9270A128A1101307D
:100698000A128A11E9270A128A1100300A128A11ED
:1006A80097270A128A11D2300A128A11E9270A12E8
:1006B8008A111B300A128A11E9270A128A1100309E
:1006C8000A128A11E9270A128A1100300A128A11BD
:1006D80097270A128A11D2300A128A11E9270A12B8
:1006E8008A111C300A128A11E9270A128A1100306D
:1006F8000A128A11E9270A128A1100300A128A118D
:1007080097270A128A11D2300A128A11E9270A1287
:100718008A111A300A128A11E9270A128A1100303E
:100728000A128A11E9270A128A1100300A128A115C
:1007380097270A128A11D2300A128A11E9270A1257
:100748008A1119300A128A11E9270A128A11073008
:100758000A128A11E9270A128A110A128A15F7273A
:100768000A128A1108008316031788018901831663
:10077800031385018601880183120313850186010D
:10078800880104300A128A11FF260A128A110030E1
:1007980083120313C9000130C8008630C700A03097
:1007A800C60008300A128A11CC210A128A110A12CC
:1007B8008A112D230A128A110A128A11FB240A129D
:1007C8008A110A128A117D270A128A11F50101304D
:1007D8000A128A1108260A128A1111300A128A117D
:1007E80057270A128A11023083120313CB004B08D1
:1007F800F50002300A128A1108260A128A112030DE
:100808000A128A1157270A128A11333083120313E6
:10081800CD00BB30CC00DF30CB00CB0B112CCC0B88
:10082800112CCD0B112C0A128A117D270A128A115C
:100838008030F3002530F4000430F5000030F60075
:100848000A128A117D220A128A11080083120313E0
:10085800BA01F41F302C312C382CF309F409F30AAF
:100868000319F40ABA01BA0AF61F3B2C3C2C452C92
:10087800F509F609F50A0319F60A0130F7007708B1
:10088800BA06BB01BC017308740403194C2C4D2C27
:10089800842CB901B90A5B2C01300310F30DF40D57
:1008A800FF3E031D512C0130F7007708B907F41FEC
:1008B8005E2C5F2C502C01300310BB0DBC0DFF3E8D
:1008C800031D602C74087602031D6C2C73087502D6
:1008D800031C6F2C702C772C7308F5027408031C0A
:1008E800F603F6023B1401300310F40CF30CFF3E40
:1008F800031D782C0130B902031D832C842C5F2C36
:100908003A080319882C892C8E2CBB09BC09BB0A10
:100918000319BC0A3C08F4003B08F3000800003047
:1009280083120313C4000030C3000030C20000303B
:10093800C1003C083B043A0439040319A42CA52C33
:10094800F22CC501C50AB52C0130F3000310B90D0E
:10095800BA0DBB0DBC0DF30BAA2C0130F3007308C4
:10096800C507BC1FB82CB92CA82C0130F300031004
:10097800C10DC20DC30DC40DF30BBB2C3C084002C6
:10098800031DD02C3B083F02031DD02C3A083E0221
:10099800031DD02C39083D02031CD32CD42CE32C86
:1009A8003908BD023A08031C3A0FBE023B08031C73
:1009B8003B0FBF023C08031C3C0FC002411401302E
:1009C8000310BC0CBB0CBA0CB90CFF3E031DE42C85
:1009D8000130C502031DF12CF22CB92C4408BC00CF
:1009E8004308BB004208BA004108B9000800831256
:1009F8000313881108122530F6005B30F500F50B5B
:100A0800032DF60B032D082D30300A128A114B26C0
:100A18000A128A110B30F6006230F500F50B122D20
:100A2800F60B122D000030300A128A114B260A12DA
:100A38008A114230F500F50B1F2D000030300A12E4
:100A48008A114B260A128A114230F500F50B2A2D1D
:100A5800000038300A128A114B260A128A114230D5
:100A6800F500F50B352D000008300A128A114B26C7
:100A78000A128A114230F500F50B402D00000130B2
:100A88000A128A114B260A128A114230F500F50B18
:100A98004B2D000006300A128A114B260A128A11C1
:100AA8004230F500F50B562D00000C300A128A1161
:100AB8004B260A128A11080083120313BA01F61F83
:100AC800662D672D6E2DF509F609F50A0319F60A44
:100AD800BA01BA0AF41F712D722D772DF309F409A2
:100AE800F30A0319F40A7308740403197C2D7D2D85
:100AF800AC2DB901B90A8B2D01300310F30DF40D9B
:100B0800FF3E031D812D0130F7007708B907F41F58
:100B18008E2D8F2D802D74087602031D952D730858
:100B28007502031C982D992D9F2D7308F5027408E2
:100B3800031CF603F60201300310F40CF30CFF3E1D
:100B4800031DA02D0130B902031DAB2DAC2D8F2D37
:100B58003A080319B02DB12DB62DF509F609F50A95
:100B68000319F60A7608F4007508F30008008312E2
:100B78000313C201C3010A30F3000030F4008312EA
:100B880003133E08F6003D08F5000A128A11602595
:100B98000A128A11730883120313C00042083F0720
:100BA800C10041088400400880000A30F30000308A
:100BB800F40042083F07C0004008840000083D02D6
:100BC800F5003E08031C3E03F6000A128A112A2487
:100BD8000A128A11740883120313BE007308BD0039
:100BE8000130C2070318C30A0030C3074308803A1C
:100BF800FF0080307F02031D032E03304202031CD6
:100C0800062E072EBF2D080083120313B900881182
:100C180008123903031D112E122E192E80300A12C4
:100C28008A114B260A128A11252E02303906031D15
:100C38001E2E1F2E252EC0300A128A114B260A128C
:100C48008A116830F700E430F600F60B292EF70B0E
:100C5800292E000075080319322E332E4A2E3C2EF9
:100C680014300A128A114B260A128A110130F50231
:100C78007508031D402E412E342E6830F700E430ED
:100C8800F600F60B452EF70B452E00000800F40081
:100C9800741C4F2E502E542E831203130817572EF0
:100CA800831203130813F41C5A2E5B2E5D2E88172B
:100CB8005E2E8813741D612E622E642E0614652E16
:100CC8000610F41D682E692E6B2E86146C2E861065
:100CD800741E6F2E702E722E0615732E0611F41EBA
:100CE800762E772E792E86157A2E8611741F7D2EF4
:100CF8007E2E802E0616812E0612F41F842E852E37
:100D0800872E8616882E86120A128A11C2270A1280
:100D18008A110800F500A42E3030CC2E3130CC2EAC
:100D28003230CC2E3330CC2E3430CC2E3530CC2E45
:100D38003630CC2E3730CC2E3830CC2E3930CC2E25
:100D48007508F300F4017408003A0319AC2ECC2E90
:100D58007308003A0319902E013A0319922E033AA8
:100D68000319942E013A0319962E073A0319982E5F
:100D7800013A03199A2E033A03199C2E013A0319D2
:100D88009E2E0F3A0319A02E013A0319A22ECC2E3B
:100D9800080006308A000408840A820700345834A0
:100DA8003A34203420342034203459343A3420342E
:100DB800203420342034203453343A3400344D3431
:100DC80069346E346934703472346F34793465340C
:100DD800633474346F342034323400344A346F341A
:100DE800733465342034533461346E347434693464
:100DF8007A346F340034F30008307306031D052F6E
:100E0800062F0B2F831603130F168F160F17043098
:100E18007306031D102F112F162F831603130F129D
:100E28008F160F1702307306031D1B2F1C2F212F3F
:100E3800831603130F168F120F177303031D252F25
:100E4800262F2B2F831603130F128F120F178316BB
:100E580003130F140800F4000A128A11D0270A128B
:100E68008A118316031391150A128A11D0270A12C0
:100E78008A11831203131308F3007308F5000A128A
:100E88008A11D0270A128A117408031D4C2F4D2F7E
:100E9800512F831603139112542F8316031391169F
:100EA800111675080800F700831203138815081235
:100EB800F6016F2F7608770784000A128A11CD266B
:100EC8000A128A110A128A114B260A128A11013053
:100ED800F5007508F6077608770784000A128A1164
:100EE800CD260A128A11003A031D7B2F7C2F5E2F14
:100EF8000800831203138811081201300A128A119C
:100F08004B260A128A111A30F600F830F500F50B54
:100F18008B2FF60B8B2F000002300A128A114B26FA
:100F28000A128A110800F3000A128A11D0270A123D
:100F38008A117303031DA12FA22FA52F8316031354
:100F480011147308031DA92FAA2FAD2F831603139D
:100F58009114831203138C110800831203138C1E3F
:100F6800B62FB72FBB2F1A08F0007008A10072081F
:100F78008A00710E8300FE0E7E0E09008312031391
:100F88008816C730F300C82FF30BC72FCB2FCC2FF1
:100F98008312031388120800831603131419D52F1C
:100FA800D62FD02F11081F39031DDB2FDC2FD02F90
:100FB8000800F500831203138815081275080A1231
:100FC8008A114B260A128A110800F3000A128A11A4
:100FD800D0270A128A11730883120313930008009A
:100FE800F300831203130C1EFA2FFB2FF52F73083F
:080FF8009900080001340034E7
:101FDE0064008001840A0406031900340406F02FFD
:101FEE000A128A11D0270A128A15831603131115A5
:021FFE000800D9
:04400E00D420FF3F7C
:00000001FF
