:060000000A128A110C280F
:10000800FE00030EF0000A08F1000A128A11C92F37
:100018000A128A110F28FA01FB0183132030840089
:1000280038300A128A11C1270A128A1183010A126A
:100038008A111E280A128A118E230A128A11013087
:100048000A128A116C270A128A11D2300A128A11EE
:10005800AD270A128A113B300A128A11AD270A12FB
:100068008A1100300A128A116C270A128A11D330B9
:100078000A128A11AD270A128A1100300A128A114F
:1000880004270A128A1183120313CA004A08B70008
:1000980000300A128A1104270A128A1183120313E4
:1000A800CA004A08B60000300A128A1104270A1248
:1000B8008A1183120313CA004A08B50000300A12D5
:1000C8008A1104270A128A1183120313CA004A08E4
:1000D800B40000300A128A1104270A128A11831206
:1000E8000313CA004A08B30000300A128A11042711
:1000F8000A128A1183120313CA004A08B200003098
:100108000A128A1104270A128A1183120313CA00D9
:100118004A08B10000300A128A1104270A128A110B
:1001280083120313CA004A08B00000300A128A1169
:1001380004270A128A1183120313CA004A08AF005F
:1001480000300A128A1104270A128A118312031333
:10015800CA004A08AE0000300A128A1104270A129F
:100168008A1183120313CA004A08AD0000300A122C
:100178008A1104270A128A1183120313CA004A0833
:10018800AC0000300A128A1104270A128A1183125D
:100198000313CA004A08AB0001300A128A11042767
:1001A8000A128A1183120313CA004A08AA000A1203
:1001B8008A11B8270A128A111A3083120313CB0046
:1001C800F730CA00CA0BE628CB0BE628EB288312C7
:1001D80003132F08CA00CB014A08BC004B08BD0016
:1001E8007B30CC004C08BE000A128A1190250A12F6
:1001F8008A117B080A128A1163260A128A1183124D
:100208000313CA004A08A9007C080A128A11632647
:100218000A128A1183120313CA004A08A8007D082B
:100228000A128A1163260A128A1183120313CA005A
:100238004A08A700F40101300A128A11DD250A12C2
:100248008A1101300A128A112C270A128A11F40124
:1002580002300A128A11DD250A128A118312031349
:1002680027080A128A11A1270A128A118312031376
:1002780028080A128A11A1270A128A118312031365
:1002880029080A128A11A1270A128A118312031354
:100298002D08CA00CB014A08BC004B08BD007A30C3
:1002A800CC004C08BE000A128A1190250A128A1145
:1002B8007A080A128A1163260A128A118312031312
:1002C800CA004A08A6007B080A128A1163260A1285
:1002D8008A1183120313CA004A08A5007C080A126F
:1002E8008A1163260A128A1183120313CA004A0864
:1002F800A4000630CA004A08F40002300A128A1123
:10030800DD250A128A118312031324080A128A119E
:10031800A1270A128A118312031325080A128A11C7
:10032800A1270A128A118312031326080A128A11B6
:10033800A1270A128A1123280A128A110C2883126B
:100348000313C60094121A3083120313C300F73044
:10035800C200C20BAD29C30BAD29B2298312031306
:100368009416063046020318BA29BB29DF298316DA
:100378000313871207160430831203134602031867
:10038800C629C729CB29831603138711CE298316BB
:10039800031387150430831203134606031DD5295A
:1003A800D629D929831603138516831214128316A6
:1003B800031394174C2A06304602031CE429E52946
:1003C8004C2A8316031387150716831203139416F2
:1003D8008316031394170730831203134606031971
:1003E800F629F729FD290F304606031DFC29FD29AA
:1003F800002A831603139410083083124606031D3F
:10040800062A072A3B2A1412831603139101940122
:10041800831203133E08C2003F08C3004008C4000B
:100428004108C50002300310C20DC30DC40DC50D2F
:10043800FF3E031D172A4508F5004408F400430849
:10044800F3004208F2000030F9007A30F800123068
:10045800F7000030F6000A128A116A240A128A117B
:100468007208FF3E8316031393008C114C2A14164E
:100478008316031391131114831203133E08831672
:10048800031393008B170B178C15831203138C110E
:1004980083121408460494008316031314130800E7
:1004A80080307206253003197306031D5C2A5D2A05
:1004B800702A043074067504031D632A642A702A9E
:1004C800831603131812181583160317871119308A
:1004D8008316031399009A01803072062530031998
:1004E8007306031D782A792A8C2A08307406750445
:1004F800031D7F2A802A8C2A8316031318121811C9
:1005080083160317871533308316031399009A014E
:1005180080307206253003197306031D942A952A24
:10052800A72A74037504031D9A2A9B2AA72A8316EF
:100538000313181218158316031787151930831615
:10054800031399009A01B130720628300319730613
:10055800031DAF2AB02AC32A043074067504031D8C
:10056800B62AB72AC32A8316031318121815831636
:100578000317871517308316031399009A01B130B2
:100588007206283003197306031DCB2ACC2ADF2AEA
:10059800083074067504031DD22AD32ADF2A83166D
:1005A8000313181218118316031787152F30831693
:1005B800031399009A01B1307206283003197306A3
:1005C800031DE72AE82AFA2A74037504031DED2A95
:1005D800EE2AFA2A83160313181218118316031722
:1005E800871505308316031399009A0183120313A4
:1005F8009817181318168316031398168C120800E8
:100608000230F5008630F4009930F300F30B0A2B22
:10061800F40B0A2BF50B0A2B01300A128A116C27EE
:100628000A128A11D2300A128A11AD270A128A11C7
:100638006B300A128A11AD270A128A1101300A1288
:100648008A11AD270A128A1100300A128A116C2702
:100658000A128A11D2300A128A11AD270A128A1197
:100668001B300A128A11AD270A128A1100300A12A9
:100678008A11AD270A128A1100300A128A116C27D2
:100688000A128A11D2300A128A11AD270A128A1167
:100698001C300A128A11AD270A128A1100300A1278
:1006A8008A11AD270A128A1100300A128A116C27A2
:1006B8000A128A11D2300A128A11AD270A128A1137
:1006C8001A300A128A11AD270A128A1100300A124A
:1006D8008A11AD270A128A1100300A128A116C2772
:1006E8000A128A11D2300A128A11AD270A128A1107
:1006F80019300A128A11AD270A128A1107300A1214
:100708008A11AD270A128A110A128A11B8270A1209
:100718008A110800831603178801890183160313B9
:1007280085018601880183120313850186018801EA
:1007380004300A128A11D4260A128A110030831250
:100748000313C1000130C0008630BF00A030BE00D6
:1007580008300A128A11A3210A128A110A128A1170
:1007680004230A128A110A128A11D2240A128A113F
:100778000A128A1152270A128A11F40101300A1248
:100788008A11DD250A128A1111300A128A112C27C2
:100798000A128A11023083120313C7004708F400B3
:1007A80002300A128A11DD250A128A1120300A1233
:1007B8008A112C270A128A11333083120313C900B5
:1007C800BB30C800DF30C700C70BE82BC80BE82BCD
:1007D800C90BE82B0A128A1152270A128A11803093
:1007E800F2002530F3000430F4000030F5000A125E
:1007F8008A1154220A128A11080083120313B901BC
:10080800F31F072C082C0F2CF209F309F20A03191D
:10081800F30AB901B90AF51F122C132C1C2CF40980
:10082800F509F40A0319F50A0130F6007608B90645
:10083800BA01BB01720873040319232C242C5B2C06
:10084800B801B80A322C01300310F20DF30DFF3E47
:10085800031D282C0130F6007608B807F31F352C45
:10086800362C272C01300310BA0DBB0DFF3E031D9B
:10087800372C73087502031D432C72087402031C7D
:10088800462C472C4E2C7208F4027308031CF503FF
:10089800F5023A1401300310F30CF20CFF3E031D6D
:1008A8004F2C0130B802031D5A2C5B2C362C39080A
:1008B80003195F2C602C652CBA09BB09BA0A031905
:1008C800BB0A3B08F3003A08F20008000030831224
:1008D8000313BC000030BB000030BA000030B90080
:1008E800750874047304720403197B2C7C2CC92CBE
:1008F800BD01BD0A8C2C0130B8000310F20DF30DB8
:10090800F40DF50DB80B812C0130B8003808BD077F
:10091800F51F8F2C902C7F2C0130B8000310B90DD7
:10092800BA0DBB0DBC0DB80B922C75087902031DCE
:10093800A72C74087802031DA72C73087702031DDF
:10094800A72C72087602031CAA2CAB2CBA2C7208AE
:10095800F6027308031C730FF7027408031C740F64
:10096800F8027508031C750FF902391401300310D9
:10097800F50CF40CF30CF20CFF3E031DBB2C0130FC
:10098800BD02031DC82CC92C902C3C08F5003B085F
:10099800F4003A08F3003908F20008008312031340
:1009A800881108122530F5005B30F400F40BDA2CBE
:1009B800F50BDA2CDF2C30300A128A1120260A12A5
:1009C8008A110B30F5006230F400F40BE92CF50BBA
:1009D800E92C000030300A128A1120260A128A11E6
:1009E8004230F400F40BF62C000030300A128A1161
:1009F80020260A128A114230F400F40B012D00005F
:100A080038300A128A1120260A128A114230F4005C
:100A1800F40B0C2D000008300A128A1120260A1245
:100A28008A114230F400F40B172D000001300A122D
:100A38008A1120260A128A114230F400F40B222D62
:100A4800000006300A128A1120260A128A11423042
:100A5800F400F40B2D2D00000C300A128A11202608
:100A68000A128A110800F801F51F3B2D3C2D432D71
:100A7800F409F509F40A0319F50AF801F80AF31F4D
:100A8800462D472D4C2DF209F309F20A0319F30AF2
:100A9800720873040319512D522D812DF701F70A9D
:100AA800602D01300310F20DF30DFF3E031D562D8E
:100AB8000130F6007608F707F31F632D642D552DD6
:100AC80073087502031D6A2D72087402031C6D2DCC
:100AD8006E2D742D7208F4027308031CF503F502D9
:100AE80001300310F30CF20CFF3E031D752D01308D
:100AF800F702031D802D812D642D78080319852D9B
:100B0800862D8B2DF409F509F40A0319F50A7508E1
:100B1800F3007408F200080083120313C101C20134
:100B28000A30F2000030F300831203133D08F50089
:100B38003C08F4000A128A1137250A128A11720831
:100B480083120313BF0041083E07C0004008840019
:100B58003F0880000A30F2000030F30041083E07E9
:100B6800BF003F08840000083C02F4003D08031C55
:100B78003D03F5000A128A1101240A128A1173082A
:100B880083120313BD007208BC000130C1070318AB
:100B9800C20A0030C2074208803AFF0080307F0254
:100BA800031DD82D03304102031CDB2DDC2D942DB1
:100BB8000800F70083120313881108127703031D36
:100BC800E62DE72DEE2D80300A128A1120260A1212
:100BD8008A11FA2D02307706031DF32DF42DFA2D14
:100BE800C0300A128A1120260A128A116830F600CB
:100BF800E430F500F50BFE2DF60BFE2D0000740811
:100C08000319072E082E1F2E112E14300A128A11CE
:100C180020260A128A110130F4027408031D152EC9
:100C2800162E092E6830F600E430F500F50B1A2E62
:100C3800F60B1A2E00000800F300731C242E252E34
:100C4800292E8312031308172C2E8312031308135B
:100C5800F31C2F2E302E322E8817332E8813731D37
:100C6800362E372E392E06143A2E0610F31D3D2E39
:100C78003E2E402E8614412E8610731E442E452E7D
:100C8800472E0615482E0611F31E4B2E4C2E4E2EBF
:100C980086154F2E8611731F522E532E552E06166B
:100CA800562E0612F31F592E5A2E5C2E86165D2ECE
:100CB80086120A128A1186270A128A110800F4007D
:100CC800792E3030A12E3130A12E3230A12E333082
:100CD800A12E3430A12E3530A12E3630A12E37303A
:100CE800A12E3830A12E3930A12E7408F200F3015C
:100CF8007308003A0319812EA12E7208003A0319CD
:100D0800652E013A0319672E033A0319692E013A31
:100D180003196B2E073A03196D2E013A03196F2E2A
:100D2800033A0319712E013A0319732E0F3A031966
:100D3800752E013A0319772EA12E080006308A0075
:100D48000408840A8207003458343A3420342034A2
:100D58002034203459343A34203420342034203498
:100D6800203453343A3400344D3469346E346934A1
:100D7800703472346F3479346534633474346F3456
:100D88002034323400344A346F34733465342034B8
:100D9800533461346E34743469347A346F340034C3
:100DA800F20008307206031DDA2EDB2EE02E8316C1
:100DB80003130F168F160F1704307206031DE52E46
:100DC800E62EEB2E831603130F128F160F17023021
:100DD8007206031DF02EF12EF62E831603130F163E
:100DE8008F120F177203031DFA2EFB2E002F831686
:100DF80003130F128F120F17831603130F14080013
:100E0800F3000A128A1194270A128A11831603130F
:100E180091150A128A1194270A128A118312031350
:100E28001308F2007208F4000A128A1194270A12B1
:100E38008A117308031D212F222F262F83160313CF
:100E48009112292F8316031391161116740808009E
:100E5800F6008312031388150812F501442F75084C
:100E6800760784000A128A11A2260A128A110A1227
:100E78008A1120260A128A110130F4007408F50735
:100E88007508760784000A128A11A2260A128A11A6
:100E9800003A031D502F512F332F080083120313DC
:100EA8008811081201300A128A1120260A128A11A2
:100EB8001A30F500F830F400F40B602FF50B602FB2
:100EC800000002300A128A1120260A128A1108002C
:100ED800F2000A128A1194270A128A117203031D5A
:100EE800762F772F7A2F8316031311147208031D98
:100EF8007E2F7F2F822F83160313911483120313DF
:100F08008C110800831203138816C730F2008C2F47
:100F1800F20B8B2F8F2F902F831203138812080048
:100F2800831603131419992F9A2F942F11081F3918
:100F3800031D9F2FA02F942F0800F4008312031382
:100F48008815081274080A128A1120260A128A11B2
:100F58000800F2000A128A1194270A128A117208EC
:100F680083120313930008000A128A1194270A12A5
:100F78008A11831603131115080064008001840A7E
:100F88000406031900340406C22F71088A00700E83
:080F98008300FE0E7E0E09002D
:04400E00D420FF3F7C
:00000001FF
