:060000000A128A110C280F
:10000800FE00030EF1000A08F2000A128A11E42F1A
:100018000A128A110F280A128A15E1270A128A1170
:10002800D1000A128A15E2270A128A11D200831314
:100038002030840039300A128A15E3270A128A11FF
:10004800F801F901FA0183010A128A112B280A1210
:100058008A11CE230A128A1101300A128A11CA277C
:100068000A128A11D2300A128A11F5270A128A1145
:100078003B300A128A11F5270A128A1100300A1237
:100088008A11CA270A128A11D3300A128A11F5274F
:100098000A128A1100300A128A1162270A128A117A
:1000A80083120313CE004E08B80000300A128A11DA
:1000B80062270A128A1183120313CE004E08B70072
:1000C80000300A128A1162270A128A118312031356
:1000D800CE004E08B60000300A128A1162270A12B2
:1000E8008A1183120313CE004E08B50000300A129D
:1000F8008A1162270A128A1183120313CE004E084E
:10010800B40000300A128A1162270A128A11831277
:100118000313CE004E08B30000300A128A1162277A
:100128000A128A1183120313CE004E08B20000305F
:100138000A128A1162270A128A1183120313CE0047
:100148004E08B10000300A128A1162270A128A1179
:1001580083120313CE004E08F80000300A128A11E9
:1001680062270A128A1183120313CE004E08B000C8
:1001780000300A128A1162270A128A1183120313A5
:10018800CE004E08AF0000300A128A1162270A1208
:100198008A1183120313CE004E08AE0000300A12F3
:1001A8008A1162270A128A1183120313CE004E089D
:1001B800AD0001300A128A1162270A128A118312CD
:1001C8000313CE004E08AC000A128A15EB270A1258
:1001D8008A11033083120313D0008A30CF005530C0
:1001E800CE00CE0BF528CF0BF528D00BF528013023
:1001F8000A128A11CA270A128A1150300A128A1161
:10020800F5270A128A1101300A128A11F5270A12F3
:100218008A1101300A128A1162270A128A1183127E
:100228000313CE004E08A0000A128A15EB270A1203
:100238008A11033083120313D0008A30CF0055305F
:10024800CE00CE0B2529CF0B2529D00B25297808E0
:1002580083120313CE00CF014E08BD004F08BE0025
:100268007A30D0005008BF000A128A11D2250A122B
:100278008A117A080A128A11A5260A128A1183128B
:100288000313CE004E08AB007B080A128A11A5267C
:100298000A128A1183120313CE004E08AA007C08A2
:1002A8000A128A11A5260A128A1183120313CE0094
:1002B8004E08A900F50101300A128A111F260A12F8
:1002C8008A1101300A128A118A270A128A11F50145
:1002D80002300A128A111F260A128A118312031386
:1002E80029080A128A15F4270A128A11831203139D
:1002F8002A080A128A15F4270A128A11831203138C
:100308002B080A128A15F4270A128A11831203137A
:100318002F08CE00CF014E08BD004F08BE0079302F
:10032800D0005008BF000A128A11D2250A128A1179
:1003380079080A128A11A5260A128A118312031350
:10034800CE004E08A8007A080A128A11A5260A12B9
:100358008A1183120313CE004E08A7007B080A12E5
:100368008A11A5260A128A1183120313CE004E0899
:10037800A6000630CE004E08F50002300A128A1197
:100388001F260A128A118312031326080A128A15D5
:10039800F4270A128A118312031327080A128A15EE
:1003A800F4270A128A118312031328080A128A15DD
:1003B800F4270A128A1130280A128A110C2883128B
:1003C8000313CA0094121A30F500F830F400F40B45
:1003D800EB29F50BEB290000831203139416063062
:1003E8004A020318F829F9291D2A831603138712CC
:1003F80007160430831203134A020318042A052A35
:10040800092A8316031387110C2A831603138715E9
:100418000430831203134A06031D132A142A172AC9
:100428008316031385168312141283160313941765
:100438008C2A06304A02031C222A232A8C2A831675
:1004480003138715071683120313941683160313D1
:1004580094170730831203134A060319342A352ADE
:100468003B2A0F304A06031D3A2A3B2A3E2A8316A6
:1004780003139410083083124A06031D442A452AA0
:100488007B2A141283160313910194018312031318
:100498004608F4004708F5004808F6004908F70040
:1004A80002300310F40DF50DF60DF70DFF3E031D98
:1004B800552A7708BC007608BB007508BA0074088E
:1004C800B9000030C0007A30BF001230BE000030E2
:1004D800BD000A128A11AA240A128A118312031370
:1004E8003908FF3E8316031393008C118C2A1416C7
:1004F80083160313911311148312031346088316EA
:10050800031393008B170B178C15831203138C118D
:10051800831214084A049400831603131413080062
:1005280080307306253003197406031D9C2A9D2A02
:10053800B02A043075067604031DA32AA42AB02A1B
:100548008316031318121815831603178711193009
:100558008316031399009A01803073062530031916
:100568007406031DB82AB92ACC2A08307506760401
:10057800031DBF2AC02ACC2A831603131812181188
:1005880083160317871533308316031399009A01CE
:1005980080307306253003197406031DD42AD52A22
:1005A800E72A75037604031DDA2ADB2AE72A83166D
:1005B8000313181218158316031787151930831695
:1005C800031399009A01B130730628300319740691
:1005D800031DEF2AF02A032B043075067604031D49
:1005E800F62AF72A032B83160313181218158316F5
:1005F8000317871517308316031399009A01B13032
:100608007306283003197406031D0B2B0C2B1F2BA4
:10061800083075067604031D122B132B1F2B831627
:100628000313181218118316031787152F30831612
:10063800031399009A01B130730628300319740620
:10064800031D272B282B3A2B75037604031D2D2B0E
:100658002E2B3A2B8316031318121811831603171F
:10066800871505308316031399009A018312031323
:100678009817181318168316031398168C12080067
:100688000230F6008630F5009930F400F40B4A2B5E
:10069800F50B4A2BF60B4A2B01300A128A11CA278E
:1006A8000A128A11D2300A128A11F5270A128A11FF
:1006B8006B300A128A11F5270A128A1101300A12C0
:1006C8008A11F5270A128A1100300A128A11CA27DC
:1006D8000A128A11D2300A128A11F5270A128A11CF
:1006E8001B300A128A11F5270A128A1100300A12E1
:1006F8008A11F5270A128A1100300A128A11CA27AC
:100708000A128A11D2300A128A11F5270A128A119E
:100718001C300A128A11F5270A128A1100300A12AF
:100728008A11F5270A128A1100300A128A11CA277B
:100738000A128A11D2300A128A11F5270A128A116E
:100748001A300A128A11F5270A128A1100300A1281
:100758008A11F5270A128A1100300A128A11CA274B
:100768000A128A11D2300A128A11F5270A128A113E
:1007780019300A128A11F5270A128A1107300A124B
:100788008A11F5270A128A110A128A15EB270A120A
:100798008A11080083160317880189018316031339
:1007A800850186018801831203138501860188016A
:1007B80004300A128A1132270A128A110030831271
:1007C8000313C9000130C8008630C700A030C60036
:1007D80008300A128A11E3210A128A110A128A11B0
:1007E80044230A128A110A128A1112250A128A113E
:1007F8000A128A11B0270A128A11F50101300A1269
:100808008A111F260A128A1111300A128A118A27A0
:100818000A128A11023083120313CB004B08F50029
:1008280002300A128A111F260A128A1120300A126F
:100838008A118A270A128A11333083120313CD00D2
:10084800BB30CC00DF30CB00CB0B282CCC0B282CBA
:10085800CD0B282C0A128A11B0270A128A1180306F
:10086800F3002530F4000430F5000030F6000A12D9
:100878008A1194220A128A11080083120313BA01FA
:10088800F41F472C482C4F2CF309F409F30A0319D9
:10089800F40ABA01BA0AF61F522C532C5C2CF5093B
:1008A800F609F50A0319F60A0130F7007708BA06BF
:1008B800BB01BC01730874040319632C642C9B2CC2
:1008C800B901B90A722C01300310F30DF40DFF3E83
:1008D800031D682C0130F7007708B907F41F752C41
:1008E800762C672C01300310BB0DBC0DFF3E031D99
:1008F800772C74087602031D832C73087502031C79
:10090800862C872C8E2C7308F5027408031CF603BA
:10091800F6023B1401300310F40CF30CFF3E031DE8
:100928008F2C0130B902031D9A2C9B2C762C3A0887
:1009380003199F2CA02CA52CBB09BC09BB0A0319C1
:10094800BC0A3C08F4003B08F3000800003083129E
:100958000313C4000030C3000030C2000030C100DF
:100968003C083B043A0439040319BB2CBC2C092D60
:10097800C501C50ACC2C0130F3000310B90DBA0D1E
:10098800BB0DBC0DF30BC12C0130F3007308C50778
:10099800BC1FCF2CD02CBF2C0130F3000310C10D8D
:1009A800C20DC30DC40DF30BD22C3C084002031D2D
:1009B800E72C3B083F02031DE72C3A083E02031DC3
:1009C800E72C39083D02031CEA2CEB2CFA2C3908D9
:1009D800BD023A08031C3A0FBE023B08031C3B0F3A
:1009E800BF023C08031C3C0FC00241140130031035
:1009F800BC0CBB0CBA0CB90CFF3E031DFB2C013020
:100A0800C502031D082D092DD02C4408BC0043083D
:100A1800BB004208BA004108B9000800831203135A
:100A2800881108122530F6005B30F500F50B1A2DF9
:100A3800F60B1A2D1F2D30300A128A1162260A125F
:100A48008A110B30F6006230F500F50B292DF60BF4
:100A5800292D000030300A128A1162260A128A11E2
:100A68004230F500F50B362D000030300A128A119D
:100A780062260A128A114230F500F50B412D00005A
:100A880038300A128A1162260A128A114230F50099
:100A9800F50B4C2D000008300A128A1162260A1242
:100AA8008A114230F500F50B572D000001300A126B
:100AB8008A1162260A128A114230F500F50B622D5E
:100AC800000006300A128A1162260A128A11423080
:100AD800F500F50B6D2D00000C300A128A11622604
:100AE8000A128A11080083120313BA01F61F7D2D1A
:100AF8007E2D852DF509F609F50A0319F60ABA01BE
:100B0800BA0AF41F882D892D8E2DF309F409F30AEA
:100B18000319F40A730874040319932D942DC32D33
:100B2800B901B90AA22D01300310F30DF40DFF3EEF
:100B3800031D982D0130F7007708B907F41FA52D7C
:100B4800A62D972D74087602031DAC2D7308750227
:100B5800031CAF2DB02DB62D7308F5027408031CC5
:100B6800F603F60201300310F40CF30CFF3E031DEC
:100B7800B72D0130B902031DC22DC32DA62D3A0889
:100B88000319C72DC82DCD2DF509F609F50A031946
:100B9800F60A7608F4007508F300080083120313B8
:100BA800C201C3010A30F3000030F40083120313BA
:100BB8003E08F6003D08F5000A128A1177250A1248
:100BC8008A11730883120313C00042083F07C1004B
:100BD80041088400400880000A30F3000030F40027
:100BE80042083F07C0004008840000083D02F500A5
:100BF8003E08031C3E03F6000A128A1141240A1219
:100C08008A11740883120313BE007308BD000130F3
:100C1800C2070318C30A0030C3074308803AFF001D
:100C280080307F02031D1A2E03304202031C1D2E42
:100C38001E2ED62D080083120313B900881108123E
:100C48003903031D282E292E302E80300A128A11CE
:100C580062260A128A113C2E02303906031D352EEF
:100C6800362E3C2EC0300A128A1162260A128A11C8
:100C78006830F700E430F600F60B402EF70B402EF4
:100C8800000075080319492E4A2E612E532E143080
:100C98000A128A1162260A128A110130F5027508B1
:100CA800031D572E582E4B2E6830F700E430F600FF
:100CB800F60B5C2EF70B5C2E00000800F400741C89
:100CC800662E672E6B2E8312031308176E2E83125F
:100CD80003130813F41C712E722E742E8817752EA8
:100CE8008813741D782E792E7B2E06147C2E061000
:100CF800F41D7F2E802E822E8614832E8610741E5D
:100D0800862E872E892E06158A2E0611F41E8D2E04
:100D18008E2E902E8615912E8611741F942E952E48
:100D2800972E0616982E0612F41F9B2E9C2E9E2E8A
:100D380086169F2E86120A128A11E4260A128A1132
:100D48000800F500BB2E3030E32E3130E32E323070
:100D5800E32E3330E32E3430E32E3530E32E3630B5
:100D6800E32E3730E32E3830E32E3930E32E750882
:100D7800F300F4017408003A0319C32EE32E730834
:100D8800003A0319A72E013A0319A92E033A0319A9
:100D9800AB2E013A0319AD2E073A0319AF2E013ACB
:100DA8000319B12E033A0319B32E013A0319B52ECC
:100DB8000F3A0319B72E013A0319B92EE32E08008A
:100DC800831203138816C730F300EA2EF30BE92EBB
:100DD800ED2EEE2E831203138812080083160313D8
:100DE8001419F72EF82EF22E11081F39031DFD2EA7
:060DF800FE2EF22E0800A1
:100E000007308A000408840A8207003458343A34D0
:100E1000203420342034203459343A3420342034DF
:100E200020342034203453343A3400344D3469347F
:100E30006E346934703472346F34793465346334A9
:100E400074346F342034323400344A346F347334A1
:100E500065342034533461346E34743469347A34F4
:100E60006F340034F30008307306031D382F392F18
:100E70003E2F831603130F168F160F1704307306B9
:100E8000031D432F442F492F831603130F128F1670
:100E90000F1702307306031D4E2F4F2F542F83164A
:100EA00003130F168F120F177303031D582F592F9B
:100EB0005E2F831603130F128F120F17831603135F
:100EC0000F140800F4000A128A11F2260A128A117D
:100ED0008316031391150A128A11F2260A128A1137
:100EE000831203131308F3007308F5000A128A1122
:100EF000F2260A128A117408031D7F2F802F842F77
:100F0000831603139112872F83160313911611165C
:100F100075080800F7008312031388150812F601FC
:100F2000A22F7608770784000A128A1100270A1276
:100F30008A110A128A1162260A128A110130F500FA
:100F40007508F6077608770784000A128A110027C9
:100F50000A128A11003A031DAE2FAF2F912F0800FD
:100F6000831203138811081201300A128A116226B3
:100F70000A128A111A30F600F830F500F50BBE2F70
:100F8000F60BBE2F000002300A128A1162260A12E6
:100F90008A110800F3000A128A11F2260A128A1135
:100FA0007303031DD42FD52FD82F831603131114C9
:100FB0007308031DDC2FDD2FE02F8316031391141C
:100FC000831203138C110800831203138C1EE92F64
:100FD000EA2FEE2F1A08F0007008A10072088A00AC
:100FE000710E8300FE0E7E0E0900F3000A128A11B4
:100FF000F2260A128A117308831203139300080061
:101FC2000134003464008001840A040603190034D9
:101FD2000406E42F0A128A11F2260A128A158316BF
:101FE200031311150800F500831203138815081254
:0E1FF20075080A128A1162260A128A15080062
:04400E00D420FF3F7C
:00000001FF
