:060000000A128A110C280F
:10000800FE00030EF0000A08F1000A128A11692F97
:100018000A128A110F28FA01FB0183132030840089
:1000280038300A128A1161270A128A1183010A12CA
:100038008A111E280A128A11F4220A128A110A1237
:100048008A114F270A128A116830F2000030F30033
:100058000A128A113C270A128A113B30F20000303A
:10006800F3000A128A113C270A128A110A128A110D
:1000780046270A128A110A128A1158270A128A1167
:100088006930F2000030F3000A128A113C270A1284
:100098008A110030F200F3000A128A11A7260A1208
:1000A8008A11720883120313C9007308CA00490829
:1000B800CA00C9010030F200F3000A128A11A7260B
:1000C8000A128A117208831203134904AC007308D8
:1000D8004A04AD000030F200F3000A128A11A72684
:1000E8000A128A11720883120313C9007308CA001E
:1000F8004908CA00C9010030F200F3000A128A1147
:10010800A7260A128A117208831203134904AA0047
:1001180073084A04AB000030F200F3000A128A1197
:10012800A7260A128A11720883120313C9007308DA
:10013800CA004908CA00C9010030F200F3000A12D7
:100148008A11A7260A128A11720883120313490416
:10015800A80073084A04A9000030F200F3000A124C
:100168008A11A7260A128A11720883120313C9007A
:100178007308CA004908CA00C9010030F200F30038
:100188000A128A11A7260A128A1172088312031307
:100198004904A60073084A04A7000030F200F300DF
:1001A8000A128A11A7260A128A11720883120313E7
:1001B800C9007308CA004908CA00C9010030F20022
:1001C800F3000A128A11A7260A128A1172088312EA
:1001D80003134904A40073084A04A5000030F20080
:1001E800F3000A128A11A7260A128A1172088312CA
:1001F8000313C9007308CA004908CA00C9010030BE
:10020800F200F3000A128A11A7260A128A1172084C
:10021800831203134904A20073084A04A3000030A0
:10022800F200F3000A128A11A7260A128A1172082C
:1002380083120313C9007308CA004908CA00C90118
:100248000130F2000030F3000A128A11A7260A12C0
:100258008A117208831203134904A00073084A0420
:10026800A1000A128A1146270A128A117B308312CA
:100278000313C9004908F90024080A128A11F8244E
:100288000A128A117B080A128A11CE250A128A11CB
:1002980083120313C9004908FA007C080A128A115C
:1002A800CE250A128A1183120313C9004908B70020
:1002B8007D080A128A11CE250A128A1183120313A5
:1002C800C9004908B600F40101300A128A1148250C
:1002D8000A128A1101300A128A11D5260A128A11C5
:1002E800F40102300A128A1148250A128A1183126F
:1002F800031336080A128A1130270A128A11831248
:10030800031337080A128A1130270A128A117A0849
:100318000A128A1130270A128A1123280A128A110E
:100328000C2880307206253003197306031D9D2999
:100338009E29B129043074067504031DA429A52932
:10034800B12983160313181218158316031787117A
:1003580019308316031399009A01803072062530EC
:1003680003197306031DB929BA29CD290830740663
:100378007504031DC029C129CD298316031318123A
:100388001811831603178715333083160313990042
:100398009A0180307206253003197306031DD5298A
:1003A800D629E82974037504031DDB29DC29E8290B
:1003B8008316031318121815831603178715193097
:1003C8008316031399009A01B13072062830031975
:1003D8007306031DF029F129042A043074067504F4
:1003E800031DF729F829042A831603131812181570
:1003F80083160317871517308316031399009A017C
:10040800B1307206283003197306031D0C2A0D2A11
:10041800202A083074067504031D132A142A202A7A
:1004280083160313181218118316031787152F3014
:100438008316031399009A01B13072062830031904
:100448007306031D282A292A3B2A74037504031DF1
:100458002E2A2F2A3B2A83160313181218118316E3
:100468000317871505308316031399009A01831221
:1004780003139817181318168316031398168C125B
:1004880008000230F6008630F5009930F400F40BCD
:100498004B2AF50B4B2AF60B4B2A0A128A114F27C7
:1004A8000A128A11D230F2000030F3000A128A11BF
:1004B8003C270A128A116B30F2000030F3000A124E
:1004C8008A113C270A128A110130F2000030F30029
:1004D8000A128A113C270A128A110A128A1158270D
:1004E8000A128A11D230F2000030F3000A128A117F
:1004F8003C270A128A111B30F2000030F3000A125E
:100508008A113C270A128A110030F200F3000A12FD
:100518008A113C270A128A110A128A1158270A12CC
:100528008A11D230F2000030F3000A128A113C27F7
:100538000A128A111C30F2000030F3000A128A11E4
:100548003C270A128A110030F200F3000A128A11BD
:100558003C270A128A110A128A1158270A128A118C
:10056800D230F2000030F3000A128A113C270A1236
:100578008A111A30F2000030F3000A128A113C275F
:100588000A128A110030F200F3000A128A113C277D
:100598000A128A110A128A1158270A128A11D230AD
:1005A800F2000030F3000A128A113C270A128A115D
:1005B8001930F2000030F3000A128A113C270A129F
:1005C8008A110730F2000030F3000A128A113C2722
:1005D8000A128A110A128A1146270A128A11080079
:1005E8008316031788018901831603138501860181
:1005F8008801890183120313850188018901860115
:10060800870104300A128A1177260A128A110030EB
:1006180083120313C1000130C0008630BF00A03030
:10062800BE000A128A110D260A128A110A128A11AC
:1006380045220A128A110A128A113A240A128A11C8
:100648000A128A11FB260A128A11F40101300A12D1
:100658008A1148250A128A1111300A128A11D526E0
:100668000A128A11023083120313C6004608F400E6
:1006780002300A128A1148250A128A1120300A12F9
:100688008A11D5260A128A11333083120313C8003F
:10069800BB30C700DF30C600C60B502BC70B502B32
:1006A800C80B502B0A128A11FB260A128A118030B5
:1006B800F2002530F3000430F4000030F5000A128F
:1006C8008A1195210A128A11080083120313B901AD
:1006D800F31F6F2B702B772BF209F309F20A03191A
:1006E800F30AB901B90AF51F7A2B7B2B842BF4097D
:1006F800F509F40A0319F50A0130F6007608B90677
:10070800BA01BB017208730403198B2B8C2BC32B02
:10071800B801B80A9A2B01300310F20DF30DFF3E11
:10072800031D902B0130F6007608B807F31F9D2BA8
:100738009E2B8F2B01300310BA0DBB0DFF3E031DFE
:100748009F2B73087502031DAB2B72087402031CE0
:10075800AE2BAF2BB62B7208F4027308031CF503FB
:10076800F5023A1401300310F30CF20CFF3E031D9E
:10077800B72B0130B802031DC22BC32B9E2B39089F
:100788000319C72BC82BCD2BBA09BB09BA0A031901
:10079800BB0A3B08F3003A08F20008000030831255
:1007A8000313BC000030BB000030BA000030B900B1
:1007B80075087404730472040319E32BE42B312CB9
:1007C800BD01BD0AF42B0130B8000310F20DF30D82
:1007D800F40DF50DB80BE92B0130B8003808BD074A
:1007E800F51FF72BF82BE72B0130B8000310B90DD4
:1007F800BA0DBB0DBC0DB80BFA2B75087902031D99
:100808000F2C74087802031D0F2C73087702031D40
:100818000F2C72087602031C122C132C222C72083F
:10082800F6027308031C730FF7027408031C740F95
:10083800F8027508031C750FF9023914013003100A
:10084800F50CF40CF30CF20CFF3E031D232C0130C5
:10085800BD02031D302C312CF82B3C08F5003B0859
:10086800F4003A08F3003908F20008008312031371
:10087800881108122530F5005B30F400F40B422C87
:10088800F50B422C472C30300A128A118B250A129C
:100898008A110B30F5006230F400F40B512CF50B83
:1008A800512C000030300A128A118B250A128A1145
:1008B8004230F400F40B5E2C000030300A128A112A
:1008C8008B250A128A114230F400F40B692C0000BF
:1008D80038300A128A118B250A128A114230F40024
:1008E800F40B742C000008300A128A118B250A12A6
:1008F8008A114230F400F40B7F2C000001300A12F8
:100908008A118B250A128A114230F400F40B8A2CC2
:10091800000006300A128A118B250A128A11423009
:10092800F400F40B952C00000C300A128A118B2568
:100938000A128A110800F801F51FA32CA42CAB2C6D
:10094800F409F509F40A0319F50AF801F80AF31F7E
:10095800AE2CAF2CB42CF209F309F20A0319F30AEE
:10096800720873040319B92CBA2CE92CF701F70A99
:10097800C82C01300310F20DF30DFF3E031DBE2CF1
:100988000130F6007608F707F31FCB2CCC2CBD2CD2
:1009980073087502031DD22C72087402031CD52C2F
:1009A800D62CDC2C7208F4027308031CF503F5023C
:1009B80001300310F30CF20CFF3E031DDD2C013057
:1009C800F702031DE82CE92CCC2C78080319ED2C30
:1009D800EE2CF32CF409F509F40A0319F50A750845
:1009E800F3007408F200080083120313C000C10169
:1009F800C2010A30F2000030F300831203134008EA
:100A0800BC00BD013C08F4003D08F5000A128A113B
:100A18009F240A128A11720883120313BE00410828
:100A28007907BF003F0884003E0880000A30F200C2
:100A38000030F30041087907BC003C088400000836
:100A48004002F400F501031CF5030A128A11692318
:100A58000A128A11720883120313BD003D08C000F0
:100A68000130C1070318C20A0030C2074208803AA1
:100A7800FF0080307F02031D432D03304102031C19
:100A8800462D472DFD2C0800F7008312031388110B
:100A980008127703031D512D522D592D80300A124B
:100AA8008A118B250A128A11652D02307706031DDB
:100AB8005E2D5F2D652DC0300A128A118B250A1212
:100AC8008A116830F600E430F500F50B692DF60B55
:100AD800692D000074080319722D732D8A2D7C2D41
:100AE80014300A128A118B250A128A110130F40275
:100AF8007408031D802D812D742D6830F600E430B4
:100B0800F500F50B852DF60B852D00000800F30088
:100B1800731C8F2D902D942D831203130817972D76
:100B2800831203130813F31C9A2D9B2D9D2D8817F0
:100B38009E2D8813731DA12DA22DA42D0614A52D5D
:100B48000610F31DA82DA92DAB2D8614AC2D8610EB
:100B5800731EAF2DB02DB22D0615B32D0611F31E41
:100B6800B62DB72DB92D8615BA2D8611731FBD2D3B
:100B7800BE2DC02D0616C12D0612F31FC42DC52D7E
:100B8800C72D8616C82D86120A128A1115270A1231
:100B98008A110800F400E42D30300C2E31300C2E70
:100BA80032300C2E33300C2E34300C2E35300C2EC7
:100BB80036300C2E37300C2E38300C2E39300C2EA7
:100BC8007408F200F3017308003A0319EC2D0C2E97
:100BD8007208003A0319D02D013A0319D22D033AAD
:100BE8000319D42D013A0319D62D073A0319D82D24
:100BF800013A0319DA2D033A0319DC2D013A0319D6
:100C0800DE2D0F3A0319E02D013A0319E22D0C2EBF
:100C180008002830831203139400831603139101EC
:100C2800831203133E08C2003F08C3004008C400F3
:100C38004108C50002300310C20DC30DC40DC50D17
:100C4800FF3E031D1F2E4508F5004408F400430825
:100C5800F3004208F2000030F9007A30F800123050
:100C6800F7000030F6000A128A11D2230A128A11FC
:100C78007208FF3E83160313930094018715071625
:100C8800080006308A000408840A820700345834B1
:100C98003A34203420342034203459343A3420343F
:100CA800203420342034203453343A3400344D3442
:100CB80069346E346934703472346F34793465341D
:100CC800633474346F342034323400344A346F342B
:100CD800733465342034533461346E347434693475
:100CE8007A346F340034F20008307206031D7D2E0A
:100CF8007E2E832E831603130F168F160F170430BC
:100D08007206031D882E892E8E2E831603130F124A
:100D18008F160F1702307206031D932E942E992EEC
:100D2800831603130F168F120F177203031D9D2EC0
:100D38009E2EA32E831603130F128F120F178316DE
:100D480003130F1408000A128A1123270A128A11A2
:100D58008316031391150A128A1123270A128A117E
:100D6800831203131308F400F5017408F6007508DC
:100D7800F7000A128A1123270A128A1172037304D0
:100D8800031DC72EC82ECC2E831603139112CF2E07
:100D980083160313911611167708F3007608F200EC
:100DA8000800F6008312031388150812F501ED2ECA
:100DB8007508760784000A128A1145260A128A11D4
:100DC8000A128A118B250A128A110130F40074085C
:100DD800F5077508760784000A128A1145260A1253
:100DE8008A11003A031DF92EFA2EDC2E0800831210
:100DF80003138811081201300A128A118B250A126E
:100E08008A111A30F500F830F400F40B092FF50BAD
:100E1800092F000002300A128A118B250A128A1142
:100E28000800831203138816C730F2001B2FF20B39
:100E38001A2F1E2F1F2F83120313881208008316E0
:100E480003131419282F292F232F11081F39031DC5
:100E58002E2F2F2F232F0800F40083120313881539
:100E6800081274080A128A118B250A128A110800BE
:100E78000A128A1123270A128A117208831203138D
:100E8800930008000A128A1123270A128A1183166E
:100E98000313111508000A128A1123270A128A114E
:100EA80083160313111408000A128A1123270A1241
:100EB8008A11831603139114080064008001840AC0
:100EC8000406031900340406622F71088A00700EA4
:080ED8008300FE0E7E0E0900EE
:04400E00D420FF3F7C
:00000001FF
