:060000000A128A110C280F
:10000800FE00030EF0000A08F1000A128A112A2FD6
:100018000A128A110F28FA01FB0183132030840089
:1000280038300A128A1122270A128A1183010A1209
:100038008A111E280A128A1134240A128A110130E0
:100048000A128A11CD260A128A11D2300A128A118E
:100058000E270A128A113B300A128A110E270A1239
:100068008A1100300A128A11CD260A128A11D33059
:100078000A128A110E270A128A1100300A128A11EE
:1000880065260A128A1183120313CA00CB010030B5
:100098000A128A1165260A128A1183120313CC00E8
:1000A800CD014C08CD00CC014A084C04AC004B08EB
:1000B8004D04AD0000300A128A1165260A128A1111
:1000C80083120313CA00CB0100300A128A11652675
:1000D8000A128A1183120313CC00CD014C08CD00FB
:1000E800CC014A084C04AA004B084D04AB00003070
:1000F8000A128A1165260A128A1183120313CA008A
:10010800CB0100300A128A1165260A128A1183125D
:100118000313CC00CD014C08CD00CC014A084C0497
:10012800A8004B084D04A90000300A128A11652660
:100138000A128A1183120313CA00CB0100300A1273
:100148008A1165260A128A1183120313CC00CD0185
:100158004C08CD00CC014A084C04A6004B084D04BD
:10016800A70000300A128A1165260A128A11831222
:100178000313CA00CB0100300A128A1165260A123D
:100188008A1183120313CC00CD014C08CD00CC0199
:100198004A084C04A4004B084D04A50000300A127C
:1001A8008A1165260A128A1183120313CA00CB0129
:1001B80000300A128A1165260A128A118312031363
:1001C800CC00CD014C08CD00CC014A084C04A2005B
:1001D8004B084D04A30001300A128A1165260A1241
:1001E8008A1183120313CA00CB0100300A128A1144
:1001F80065260A128A1183120313CC00CD014C081C
:10020800CD00CC014A084C04A0004B084D04A100C5
:100218000A128A1119270A128A1183120313250850
:10022800BD002408BC007B30CA004A08BE000A1280
:100238008A11F1240A128A117B080A128A11C4252C
:100248000A128A1183120313CA004A08B7007C08ED
:100258000A128A11C4250A128A1183120313CA00CA
:100268004A08B6007D080A128A11C4250A128A11A2
:1002780083120313CA004A08B500F40101300A12B8
:100288008A113E250A128A1101300A128A118D2616
:100298000A128A11F40102300A128A113E250A1242
:1002A8008A118312031335080A128A1102270A12C7
:1002B8008A118312031336080A128A1102270A12B6
:1002C8008A118312031337080A128A1102270A12A5
:1002D8008A11831203132308BD002208BC007A3058
:1002E800CA004A08BE000A128A11F1240A128A11A9
:1002F8007A080A128A11C4250A128A118312031372
:10030800CA004A08B4007B080A128A11C4250A12D6
:100318008A1183120313CA004A08B3007C080A1220
:100328008A11C4250A128A1183120313CA004A08C3
:10033800B2000630CA004A08F40002300A128A11D4
:100348003E250A128A118312031332080A128A11EF
:1003580002270A128A118312031333080A128A1118
:1003680002270A128A118312031334080A128A1107
:1003780002270A128A1123280A128A110C288312CA
:100388000313C60094121A3083120313C300F73004
:10039800C200C20BCD29C30BCD29D2298312031366
:1003A8009416063046020318DA29DB29FF2983163A
:1003B8000313871207160430831203134602031827
:1003C800E629E729EB29831603138711EE298316FB
:1003D800031387150430831203134606031DF529FA
:1003E800F629F92983160313851683121412831626
:1003F800031394176C2A06304602031C042A052AA4
:100408006C2A831603138715071683120313941691
:100418008316031394170730831203134606031930
:10042800162A172A1D2A0F304606031D1C2A1D2AC4
:10043800202A831603139410083083124606031DDE
:10044800262A272A5B2A1412831603139101940182
:10045800831203133E08C2003F08C3004008C400CB
:100468004108C50002300310C20DC30DC40DC50DEF
:10047800FF3E031D372A4508F5004408F4004308E9
:10048800F3004208F2000030F9007A30F800123028
:10049800F7000030F6000A128A1167230A128A113F
:1004A8007208FF3E8316031393008C116C2A1416EE
:1004B8008316031391131114831203133E08831632
:1004C800031393008B170B178C15831203138C11CE
:1004D80083121408460494008316031314130800A7
:1004E8000230F5008630F4009930F300F30B7A2AD5
:1004F800F40B7A2AF50B7A2A01300A128A11CD26D2
:100508000A128A11D2300A128A110E270A128A1187
:100518006B300A128A110E270A128A1101300A1248
:100528008A110E270A128A1100300A128A11CD2662
:100538000A128A11D2300A128A110E270A128A1157
:100548001B300A128A110E270A128A1100300A1269
:100558008A110E270A128A1100300A128A11CD2632
:100568000A128A11D2300A128A110E270A128A1127
:100578001C300A128A110E270A128A1100300A1238
:100588008A110E270A128A1100300A128A11CD2602
:100598000A128A11D2300A128A110E270A128A11F7
:1005A8001A300A128A110E270A128A1100300A120A
:1005B8008A110E270A128A1100300A128A11CD26D2
:1005C8000A128A11D2300A128A110E270A128A11C7
:1005D80019300A128A110E270A128A1107300A12D4
:1005E8008A110E270A128A110A128A1119270A1269
:1005F8008A11080083120313B901F31F042B052B7A
:100608000C2BF209F309F20A0319F30AB901B90A22
:10061800F51F0F2B102B192BF409F509F40A0319F0
:10062800F50A0130F6007608B906BA01BB0172086E
:1006380073040319202B212B582BB801B80A2F2B30
:1006480001300310F20DF30DFF3E031D252B013081
:10065800F6007608B807F31F322B332B242B013012
:100668000310BA0DBB0DFF3E031D342B7308750232
:10067800031D402B72087402031C432B442B4B2B85
:100688007208F4027308031CF503F5023A140130EA
:100698000310F30CF20CFF3E031D4C2B0130B80283
:1006A800031D572B582B332B390803195C2B5D2B53
:1006B800622BBA09BB09BA0A0319BB0A3B08F30043
:1006C8003A08F2000800003083120313BC0000301F
:1006D800BB000030BA000030B90075087404730418
:1006E80072040319782B792BC62BBD01BD0A892BFF
:1006F8000130B8000310F20DF30DF40DF50DB80B31
:100708007E2B0130B8003808BD07F51F8C2B8D2BC8
:100718007C2B0130B8000310B90DBA0DBB0DBC0D10
:10072800B80B8F2B75087902031DA42B7408780267
:10073800031DA42B73087702031DA42B72087602ED
:10074800031CA72BA82BB72B7208F6027308031CEF
:10075800730FF7027408031C740FF8027508031C62
:10076800750FF902391401300310F50CF40CF30C71
:10077800F20CFF3E031DB82B0130BD02031DC52B33
:10078800C62B8D2B3C08F5003B08F4003A08F30013
:100798003908F20008008312031388110812253063
:1007A800F5005B30F400F40BD72BF50BD72BDC2BC3
:1007B80030300A128A1181250A128A110B30F5008D
:1007C8006230F400F40BE62BF50BE62B000030301A
:1007D8000A128A1181250A128A114230F400F40B98
:1007E800F32B000030300A128A1181250A128A116F
:1007F8004230F400F40BFE2B000038300A128A1144
:1008080081250A128A114230F400F40B092C0000E9
:1008180008300A128A1181250A128A114230F4001E
:10082800F40B142C000001300A128A1181250A12D7
:100838008A114230F400F40B1F2C000006300A1213
:100848008A1181250A128A114230F400F40B2A2CED
:1008580000000C300A128A1181250A128A11080038
:1008680083160317880189018316031385018601FE
:10087800831203138501860104300A128A11352672
:100888000A128A11003083120313C1000130C0001C
:100898008630BF00A030BE0008300A128A11C3217A
:1008A8000A128A110A128A1174220A128A110A1269
:1008B8008A11CF230A128A110A128A11B3260A1240
:1008C8008A11F40101300A128A113E250A128A118E
:1008D80011300A128A118D260A128A1102308312E7
:1008E8000313C7004708F40002300A128A113E2594
:1008F8000A128A1120300A128A118D260A128A11C8
:10090800333083120313C900BB30C800DF30C7007F
:10091800C70B8C2CC80B8C2CC90B8C2C0A128A1177
:10092800B3260A128A110800F801F51F9C2C9D2C89
:10093800A42CF409F509F40A0319F50AF801F80AD0
:10094800F31FA72CA82CAD2CF209F309F20A0319FE
:10095800F30A720873040319B22CB32CE22CF701C2
:10096800F70AC12C01300310F20DF30DFF3E031DF1
:10097800B72C0130F6007608F707F31FC42CC52CF6
:10098800B62C73087502031DCB2C72087402031C65
:10099800CE2CCF2CD52C7208F4027308031CF50357
:1009A800F50201300310F30CF20CFF3E031DD62CA8
:1009B8000130F702031DE12CE22CC52C780803193D
:1009C800E62CE72CEC2CF409F509F40A0319F50ACE
:1009D8007508F3007408F200080083120313C101BC
:1009E800C2010A30F2000030F300831203133D08FD
:1009F800F5003C08F4000A128A1198240A128A1198
:100A0800720883120313BF0041083E07C000400864
:100A180084003F0880000A30F2000030F3004108EB
:100A28003E07BF003F08840000083C02F4003D0870
:100A3800031C3D03F5000A128A11FE220A128A11CC
:100A4800730883120313BD007208BC000130C1078C
:100A58000318C20A0030C2074208803AFF008030FB
:100A68007F02031D392D03304102031C3C2D3D2D0F
:100A7800F52C0800F7008312031388110812770376
:100A8800031D472D482D4F2D80300A128A118125CC
:100A98000A128A115B2D02307706031D542D552D3D
:100AA8005B2DC0300A128A1181250A128A1168301A
:100AB800F600E430F500F50B5F2DF60B5F2D000016
:100AC80074080319682D692D802D722D14300A12AF
:100AD8008A1181250A128A110130F4027408031D53
:100AE800762D772D6A2D6830F600E430F500F50B89
:100AF8007B2DF60B7B2D00000800F300731C852D61
:100B0800862D8A2D8312031308178D2D8312031344
:100B18000813F31C902D912D932D8817942D88136D
:100B2800731D972D982D9A2D06149B2D0610F31DD5
:100B38009E2D9F2DA12D8614A22D8610731EA52DE6
:100B4800A62DA82D0615A92D0611F31EAC2DAD2D29
:100B5800AF2D8615B02D8611731FB32DB42DB62D6C
:100B68000616B72D0612F31FBA2DBB2DBD2D8616FE
:100B7800BE2D86120A128A11E7260A128A11080067
:100B8800F400DA2D3030022E3130022E3230022EAF
:100B98003330022E3430022E3530022E3630022EFB
:100BA8003730022E3830022E3930022E7408F20007
:100BB800F3017308003A0319E22D022E7208003A75
:100BC8000319C62D013A0319C82D033A0319CA2D72
:100BD800013A0319CC2D073A0319CE2D013A03190E
:100BE800D02D033A0319D22D013A0319D42D0F3A07
:100BF8000319D62D013A0319D82D022E0800063004
:100C08008A000408840A8207003458343A342034AD
:100C180020342034203459343A34203420342034D9
:100C28002034203453343A3400344D3469346E342B
:100C38006934703472346F3479346534633474349D
:100C48006F342034323400344A346F3473346534AA
:100C58002034533461346E34743469347A346F34E4
:100C68000034F20008307206031D3B2E3C2E412E44
:100C7800831603130F168F160F1704307206031D01
:100C8800462E472E4C2E831603130F128F160F175E
:100C980002307206031D512E522E572E831603134F
:100CA8000F168F120F177203031D5B2E5C2E612E19
:100CB800831603130F128F120F17831603130F14C3
:100CC8000800F3000A128A11F5260A128A118316FF
:100CD800031391150A128A11F5260A128A11831232
:100CE80003131308F2007208F4000A128A11F52699
:100CF8000A128A117308031D822E832E872E8316EB
:100D0800031391128A2E8316031391161116740871
:100D18000800F6008312031388150812F501A52EA2
:100D28007508760784000A128A1103260A128A11A6
:100D38000A128A1181250A128A110130F4007408F6
:100D4800F5077508760784000A128A1103260A1225
:100D58008A11003A031DB12EB22E942E0800831278
:100D680003138811081201300A128A1181250A1208
:100D78008A111A30F500F830F400F40BC12EF50B87
:100D8800C12E000002300A128A1181250A128A1126
:100D98000800F2000A128A11F5260A128A11720353
:100DA800031DD72ED82EDB2E8316031311147208B9
:100DB800031DDF2EE02EE32E8316031391148312F6
:100DC80003138C110800831203138816C730F2002E
:100DD800ED2EF20BEC2EF02EF12E83120313881257
:100DE8000800831603131419FA2EFB2EF52E11088A
:100DF8001F39031D002F012FF52E0800F400831260
:100E080003138815081274080A128A1181250A1218
:100E18008A110800F2000A128A11F5260A128A11AC
:100E2800720883120313930008000A128A11F52628
:100E38000A128A1183160313111508006400800131
:100E4800840A0406031900340406232F71088A0053
:0A0E5800700E8300FE0E7E0E0900EE
:04400E00D420FF3F7C
:00000001FF
