:060000000A128A110C280F
:10000800FE00030EF1000A08F2000A128A11C12844
:100018000A128A110F28FA0183120313B101B201DF
:1000280083010A128A119729F90083120313941283
:100038001A3083120313AD00F730AC00AC0B222842
:10004800AD0B222827288312031394160630790251
:1000580003182F2830284B288316031387120716F6
:1000680004307902031839283A283C2887113D289A
:10007800871504307906031D42284328442885162D
:10008800831203131412831603139417B928063026
:100098007902031C50285128B928831603138715A1
:1000A8000716831203139416831603139417073045
:1000B800790603196028612867280F307906031D1F
:1000C800662867286828941008307906031D6D286B
:1000D8006E28A628831203131412831603139101A2
:1000E8009401831203132808AC002908AD002A08DC
:1000F800AE002B08AF0002300310AC0DAD0DAE0DF5
:10010800AF0DFF3E031D80282F08A3002E08A20074
:100118002D08A1002C08A0000030A7007A30A60006
:100128001230A5000030A4000A128A112F210A12E9
:100138008A11831203132008FF3E831603139300CA
:100148008C11B92883120313141683160313911301
:1001580011148312031328088316031393008B17B3
:100168000B178C15831203138C118312140879044E
:1001780094008316031314130800831203138C1DB1
:10018800C628C72828291412141BCB28CC28D02805
:10019800941FCF28D028D7281308F0007008FA0039
:1001A80014139413141683160313941ADC28DD28E9
:1001B80004291419E028E12804290430F000F00B80
:1001C800E3280000831203131308F0007008FA00F4
:1001D800ED28EE28831203138C11141683160313CB
:1001E800141CF728F828F228831203131308F000C8
:1001F8007008B200A630F000F00B00290000252995
:10020800941A072908292529141D0B290C292529A1
:10021800831203131308F0007008FA0083160313FF
:10022800141083120313310893001416A630F0003B
:10023800F00B1C2900008316031314182429252900
:100248001F29831203138C1172088A00710E830010
:10025800FE0E7E0E09000030F7000030F600003078
:10026800F5000030F400831203132308220421044C
:1002780020040319402941298E29F801F80A512937
:100288000130F3000310A00DA10DA20DA30DF30B77
:1002980046290130F3007308F807A31F542955298C
:1002A80044290130F3000310F40DF50DF60DF70D98
:1002B800F30B572923082702031D6C29220826025D
:1002C800031D6C2921082502031D6C29200824021E
:1002D800031C6F2970297F292008A4022108031C08
:1002E800210FA5022208031C220FA6022308031CC3
:1002F800230FA702741401300310A30CA20CA10C45
:10030800A00CFF3E031D80290130F802031D8D2932
:100318008E2955297708A3007608A2007508A10040
:100328007408A00008000A128A11F9210A128A1119
:10033800831203133203031DA229A329A9298717AE
:1003480008128812B101B10A9C2902303206031D35
:10035800AE29AF29B7290816871388120230B000D2
:100368003008B1009C2903303206031DBC29BD2981
:10037800C5290812871388160330B0003008B10069
:100388009C299C290A128A110C28F300083073064C
:10039800031DCF29D029D529831603130F168F16CD
:1003A8000F1704307306031DDA29DB29E0298316A9
:1003B80003130F128F160F1702307306031DE5295A
:1003C800E629EB29831603130F168F120F177303F1
:1003D800031DEF29F029F529831603130F128F1235
:1003E8000F17831603130F140800831603178801C9
:1003F8008901831603138501860188018701831209
:100408000313850186018801870108300A128A11C1
:10041800C9210A128A11003083120313AB0000307D
:10042800AA000030A9005030A80006300A128A112C
:0804380018200A128A110800C5
:04400E00D420FF3F7C
:00000001FF
